:020000040800F2
:100000000050002021020008270200082B020008EF
:100010009D020008A1020008E9020008000000009B
:100020000000000000000000000000003103000894
:10003000350300080000000039030008FD11000826
:100040004D0300084D0300084D0300084D03000850
:100050004D0300084D0300084D0300084D03000840
:100060004D0300084D0300084D0300084D03000830
:100070004D0300084D0300084D0300084D03000820
:100080004D0300084D0300084D0300084D03000810
:100090004D0300084D0300084D0300084D03000800
:1000A0004D0300084D0300084D0300084D030008F0
:1000B0004D0300084D0300084D0300084D030008E0
:1000C0004D0300084D0300084D0300084D030008D0
:1000D0004D0300084D0300084D0300084D030008C0
:1000E0004D0300084D0300084D0300080000000008
:1000F0000000000000000000000000000000000000
:1001000000000000000000005FF808F100B583B0B7
:1001100000F0AAF9304B314A1360314A1360314B79
:10012000314A32498B4204D21168196004330432D7
:10013000F7E72A4B1A682E4B9A4200D0FEE7284B6D
:100140001A682C4B9A42F9D1234B2B4A13602B4A45
:1001500013602B4B02E000221A600433294A9342B9
:10016000F9D3254B1B6813B9244B1B6803B1FEE779
:1001700000F086F9694601A800F022F9224C234BD1
:10018000E41AA4100025AC4214DC214C214BE41AE3
:10019000A4100025AC4213DC0099019800F0D6FAB7
:1001A00005461D4C1D4BE41AA410002C0EDC2846FD
:1001B00000F0E2F8154B53F8253098470135E2E797
:1001C000144B53F8253098470135E3E7013C134BB6
:1001D00053F824309847E8E7BABADECA0000002096
:1001E000A4000020000000200CC50008A80000208A
:1001F0007856341232547698A8000020440100202A
:10020000A8000020480100207803000878030008B7
:1002100078030008780300087803000878030008D2
:1002200008B5FFF773FF00BEFEE71EF0040F0CBF1A
:10023000EFF30880EFF309807146414A10472DE93A
:10024000F04182B004468846124B5E6B9F6B9D6AFC
:100250001B6B13F0020F03D00E4BDB6A002B0CDB81
:100260000D4800F0B5F8CDF800803B4632462946EF
:10027000204600F009F900BEFEE74BF6AB6100F046
:100280007DF90028ECD0034B4FF00042DA6202B057
:10029000BDE8F08100ED00E09824000800BEFEE714
:1002A0001EF0040F0CBFEFF30880EFF309807146D6
:1002B000244A10472DE9F04182B004468846084B95
:1002C0005E6B9F6B9D6A074800F082F8CDF8008056
:1002D0003B4632462946204600F0D6F800BEFEE7EF
:1002E00000ED00E0A82400081EF0040F0CBFEFF39F
:1002F0000880EFF309807146134A10472DE9F04159
:1003000082B004468846084B5E6B9F6B9D6A074827
:1003100000F05EF8CDF800803B4632462946204684
:1003200000F0B2F800BEFEE700ED00E0B4240008E3
:1003300000BEFEE700BEFEE700BEFEE7704700001D
:100340003F020008B5020008FD02000800BEFEE7FB
:100350000CC5000800000020A80000200CC5000803
:100360000000000000000000A8000020480100205C
:08037000000000000000000085
:10037800FEE7000008B503460C4A12685AB10B4A5A
:100388001068033323F003030344094A934206D851
:10039800064A136008BD054A06491160EFE701F0F7
:1003A800B9FB0C2303604FF0FF30F3E7AC000020EB
:1003B800004C00204801002001230360014B0B6022
:1003C800704700BF040000200FB400B583B004AB31
:1003D80053F8042B01938021064801F0CDFB002837
:1003E80003DD0146034800F037F803B05DF804EB7D
:1003F80004B07047B40000202DE9F04385B00446EE
:100408000F4643560BB10E461EE0042528462146EA
:10041800ABBE0446384605B0BDE8F08314F9011BAD
:1004280004AA1A4402F8101C0133AB42F6D304AAFA
:100438001344002203F8102C4FF00408E946404604
:100448004946ABBE8046761B002EE3D03546102EBB
:1004580028BF10250023E8E708B5FFF7CDFF08BD42
:1004680008B500F0FDF8024A024B9A6008BD00BFCB
:100478000000000800ED00E008B500F019F908BD1B
:10048800F8B504460D4617461E462748FFF79CFF59
:1004980021682648FFF798FF61682548FFF794FF11
:1004A800A1682448FFF790FFE1682348FFF78CFF15
:1004B80021692248FFF788FF61692148FFF784FF17
:1004C800A1692048FFF780FFE1691F48FFF77CFF1B
:1004D8001E48FFF779FF29461D48FFF775FF1D4C99
:1004E800E16A1D48FFF770FF216B1C48FFF76CFF9E
:1004F800E16B1B48FFF768FF15F0800F0AD115F470
:10050800004F0CD11748FFF75FFF06991648FFF711
:100518005BFFF8BD39461548FFF756FFEFE7314650
:100528001348FFF751FFEDE77C2300088C230008F0
:100538009C230008AC230008BC230008CC23000837
:10054800DC230008EC230008FC2300080C24000826
:100558001824000800ED00E02824000838240008CA
:10056800482400087824000880240008582400083B
:100578006824000883691A888A4201D000207047DD
:100588000268033A012A03D80233836101207047C5
:100598000020704782B00023019300932C4A13680F
:1005A80043F4803313602A4B1B6803F40033009331
:1005B800019B01330193009B1BB9019BB3F5A06F0D
:1005C800F1D1234B1B6813F4003F06D0012300939D
:1005D800009B012B04D002B0704700230093F7E77B
:1005E8001C4B1A6842F010021A601A6822F00302C3
:1005F8001A601A6842F002021A60A3F580535A681A
:100608005A605A685A605A6842F480625A605A6856
:1006180022F47C125A605A6842F4E8125A601A6846
:1006280042F080721A600A4B1B6813F0007FFAD000
:10063800074B5A6822F003025A605A6842F00202D5
:100648005A60034B5B6803F00C03082BF9D1C2E72F
:10065800001002400020024008B5FFF79BFF08BDCC
:1006680008B5104B1A6842F001021A6059680E4A20
:100678000A405A601A6822F0847222F480321A60A2
:100688001A6822F480221A605A6822F4FE025A601C
:100698004FF41F029A60FFF7DFFF044B4FF0006230
:1006A8009A6008BD001002400000FFF800ED00E06D
:1006B8001F4B5B6803F00C03042B15D0082B17D0D5
:1006C8001BB11C4B1C4A1A6002E01A4B1A4A1A60EA
:1006D800174B5B68C3F30313184AD35CDAB21549A6
:1006E8000B68D3400B607047124B134A1A60EFE750
:1006F8000F4A53685268C3F38343023312F4803FAE
:100708000AD00B4A526812F4003F0BD00C4A02FB85
:1007180003F3084A1360DBE7094A02FB03F3054ABF
:100728001360D5E7044A02FB03F3024A1360CFE7DC
:10073800001002401C00002000127A000C0000206B
:1007480000093D0000B585B000238DF80C308DF808
:100758000D3001238DF80E30094B01AC93E80300EE
:1007680084E8030003A800F0E1FB2146042000F020
:100778002DFC00F0A1FD034800F0C8FDFEE700BF16
:10078800C4240008CC2400080346002800F058823E
:1007980042780F2A00F25682DFE812F01000340087
:1007A80058007C00A000C400E8000C01300156018C
:1007B8007A019E01C201E6010A022E020178A14ACD
:1007C80052F821208078116860F3030111609A784B
:1007D800082A03D0182A0BD0012070471A78994BA1
:1007E80053F82230DA686FF30002DA6001207047AC
:1007F8001A78944B53F82220D36843F00103D3604E
:100808000120704701788F4A52F8212080781168BA
:1008180060F3071111609A78082A03D0182A0BD0C0
:10082800012070471A78874B53F82230DA686FF343
:100838004102DA60012070471A78824B53F822206F
:10084800D36843F00203D3600120704701787D4AE2
:1008580052F821208078116860F30B2111609A7892
:10086800082A03D0182A0BD0012070471A78754B34
:1008780053F82230DA686FF38202DA600120704799
:100888001A78704B53F82220D36843F00403D360DE
:100898000120704701786B4A52F82120807811684E
:1008A80060F30F3111609A78082A03D0182A0BD008
:1008B800012070471A78634B53F82230DA686FF3D7
:1008C800C302DA60012070471A785E4B53F8222081
:1008D800D36843F00803D360012070470178594A70
:1008E80052F821208078116860F3134111609A78DA
:1008F800082A03D0182A0BD0012070471A78514BC8
:1009080053F82230DA686FF30412DA600120704776
:100918001A784C4B53F82220D36843F01003D36065
:10092800012070470178474A52F8212080781168E1
:1009380060F3175111609A78082A03D0182A0BD04F
:10094800012070471A783F4B53F82230DA686FF36A
:100958004512DA60012070471A783A4B53F8222082
:10096800D36843F02003D360012070470178354AEB
:1009780052F821208078116860F31B6111609A7821
:10098800082A03D0182A0BD0012070471A782D4B5B
:1009980053F82230DA686FF38612DA600120704764
:1009A8001A78284B53F82220D36843F04003D360C9
:1009B800012070470178234A52F821208078116875
:1009C80060F31F7111609A78082A03D0182A0BD097
:1009D800012070471A781B4B53F82230DA686FF3FE
:1009E800C712DA60012070471A78164B53F8222094
:1009F800D36843F08003D360012070470178114A1F
:100A080052F821208078516860F3030151609A7888
:100A1800082A03D0182A0BD0012070471A78094BEE
:100A280053F82230DA686FF30822DA600120704741
:100A38001A78044B53F82220D36843F48073D360A8
:100A480001207047CCC4000801787F4A52F8212061
:100A58008078516860F3071151609A78082A03D0AA
:100A6800182A0BD0012070471A78774B53F8223098
:100A7800DA686FF34922DA60012070471A78724BFE
:100A880053F82220D36843F40073D36001207047E1
:100A980001786D4A52F821208078516860F30B2163
:100AA80051609A78082A03D0182A0BD00120704781
:100AB8001A78654B53F82230DA686FF38A22DA60C5
:100AC800012070471A78604B53F82220D36843F40A
:100AD8008063D3600120704701785B4A52F8212077
:100AE8008078516860F30F3151609A78082A03D0F2
:100AF800182A0BD0012070471A78534B53F822302C
:100B0800DA686FF3CB22DA60012070471A784E4B0F
:100B180053F82220D36843F40063D3600120704760
:100B28000178494A52F821208078516860F31341CE
:100B380051609A78082A03D0182A0BD001207047F0
:100B48001A78414B53F82230DA686FF30C32DA60C6
:100B5800012070471A783C4B53F82220D36843F49D
:100B68008053D360012070470178374A52F821201A
:100B78008078516860F3175151609A78082A03D039
:100B8800182A0BD0012070471A782F4B53F82230BF
:100B9800DA686FF34D32DA60012070471A782A4B11
:100BA80053F82220D36843F40053D36001207047E0
:100BB8000178254A52F821208078516860F31B613A
:100BC80051609A78082A03D0182A0BD00120704760
:100BD8001A781D4B53F82230DA686FF38E32DA60D8
:100BE800012070471A78184B53F82220D36843F431
:100BF8008043D360012070470178134A52F82120BE
:100C08008078516860F31F7151609A78082A03D080
:100C1800182A0BD0012070471A780B4B53F8223052
:100C2800DA686FF3DF32DA60012070471A78064B12
:100C380053F82230DA68012060F3DF32DA60704757
:100C48000020704700207047CCC40008002800F03E
:100C5800AE8042780F2A00F2AC80DFE802F008127A
:100C68001C26303A444E58626C76808A949E0278EC
:100C7800514B53F82220D36843F00103D36001207D
:100C8800704702784C4B53F82220D36843F0020394
:100C9800D360012070470278474B53F82220D3686D
:100CA80043F00403D360012070470278424B53F8A5
:100CB8002220D36843F00803D360012070470278EC
:100CC8003D4B53F82220D36843F01003D360012032
:100CD80070470278384B53F82220D36843F020033A
:100CE800D360012070470278334B53F82220D36831
:100CF80043F04003D3600120704702782E4B53F82D
:100D08002220D36843F08003D36001207047027823
:100D1800294B53F82220D36843F48073D360012011
:100D280070470278244B53F82220D36843F40073A9
:100D3800D3600120704702781F4B53F82220D368F4
:100D480043F48063D3600120704702781A4B53F84C
:100D58002220D36843F40063D360012070470278EF
:100D6800154B53F82220D36843F48053D3600120F5
:100D780070470278104B53F82220D36843F400538D
:100D8800D3600120704702780B4B53F82220D368B8
:100D980043F48043D360012070470278064B53F830
:100DA8002230DA68012060F3DF32DA607047002011
:100DB80070470020704700BFCCC40008002800F02E
:100DC800AE8042780F2A00F2AC80DFE802F0081209
:100DD8001C26303A444E58626C76808A949E02787B
:100DE800514B53F82230DA686FF30002DA600120C1
:100DF800704702784C4B53F82230DA686FF341029F
:100E0800DA60012070470278474B53F82230DA68DD
:100E18006FF38202DA60012070470278424B53F880
:100E28002230DA686FF3C302DA6001207047027873
:100E38003D4B53F82230DA686FF30412DA60012070
:100E480070470278384B53F82230DA686FF345124E
:100E5800DA60012070470278334B53F82230DA68A1
:100E68006FF38612DA600120704702782E4B53F830
:100E78002230DA686FF3C712DA600120704702780F
:100E8800294B53F82230DA686FF30822DA60012020
:100E980070470278244B53F82230DA686FF34922FE
:100EA800DA600120704702781F4B53F82230DA6865
:100EB8006FF38A22DA600120704702781A4B53F8E0
:100EC8002230DA686FF3CB22DA60012070470278AB
:100ED800154B53F82230DA686FF30C32DA600120D0
:100EE80070470278104B53F82230DA686FF34D32AE
:100EF800DA600120704702780B4B53F82230DA6829
:100F08006FF38E32DA60012070470278064B53F88F
:100F18002230DA686FF3DF32DA6001207047002090
:100F280070470020704700BFCCC400080178114BFF
:100F38001A6861F3D7421A6041781A6861F39242DD
:100F48001A601A6842F480321A6081785A6861F32C
:100F580001025A60002200E01A46064B1B6813F48F
:100F6800003F05D1531C9BB241F288318A42F3D924
:100F7800704700BF001002400378022B21D8012BD4
:100F88000DD01BB1022B13D0012070470E494B69BD
:100F98004278012000FA02F213434B6170470A4974
:100FA8008B694278012000FA02F213438B61704783
:100FB8000549CB694278012000FA02F21343CB615C
:100FC80070470020704700BF0010024070B505460A
:100FD8000E460120002405E006EB4400FFF7CCFF95
:100FE8000134E4B2AC42F7D370BD000038B5054611
:100FF8004C4B5A686FF300025A60002407E004EB78
:10100800440349481844FFF7BFFB0134E4B2022CFB
:10101800F5D92978454B1A6861F382021A60697814
:101028001A6861F3CF321A60A9781A6861F38E32B0
:101038001A60E9781A6861F34D321A6029791A68DA
:1010480061F3CB221A6069791A6861F38A221A60FF
:10105800AB79012B20D01BB1022B28D0002009E04E
:10106800324B1A686FF349221A605A6842F0040238
:101078005A600120E9792D4B1A6861F3C7121A608A
:10108800297A1A6861F3C5021A606B7A032B46D86D
:10109800DFE803F01827313B244B1A6842F400724A
:1010A8001A601A6842F480721A600120E2E71F4B46
:1010B8001A6842F400721A601A686FF308221A60FC
:1010C8000120D7E7194B1A686FF341021A601A68B2
:1010D80042F001021A60154A136843F04003136096
:1010E80038BD124B1A686FF341021A601A686FF321
:1010F80000021A60EFE70D4B1A6842F002021A600C
:101108001A686FF300021A60E5E7084B1A6842F0A4
:1011180002021A601A6842F001021A60DBE7002036
:10112800D9E700BF00000140200000200030014046
:101138000A4659B1064BD860054B9B6813F0800FDF
:10114800FAD1034BDB681370012070470020704709
:1011580000300140024B1A686FF382021A60704730
:1011680010E000E00000000010B521B10C46012994
:101178001FD0002005E01E4B5A6860F317025A6022
:1011880001201B4A136843F001031360184B1B68C6
:1011980013F4803FFAD0164B1A686FF300021A60F6
:1011A8009A686FF317029A605A686FF317025A60C9
:1011B80010BD00F003FA0AA3D3E9002300F078FA7F
:1011C80009A3D3E9002300F09DFB00F083FC084B42
:1011D8005A6860F317025A602046D2E7AFF30080DE
:1011E800FCA9F1D24D62503F8DEDB5A0F7C6B03ED7
:1011F80010E000E008B50A4B1B689847094B1A68CD
:101208006FF341021A609A686FF317029A605A687E
:101218006FF317025A601A686FF300021A6008BD6C
:101228003401002010E000E010B5124C2046FFF712
:101238000DFD00216420FFF797FF2046FFF7BEFD54
:1012480000210120FFF790FF2046FFF7FFFC002157
:101258006420FFF789FF2046FFF7B0FD00216420D6
:10126800FFF782FF2046FFF7F1FC01217820FFF706
:101278007BFF10BD3B00002010B582B00446054836
:10128800FFF79CFD0DF107012046FFF751FF02B063
:1012980010BD00BF3800002010B582B004460548D4
:1012A800FFF7D4FC0DF107012046FFF741FF02B01C
:1012B80010BD00BF3800002010B5002407E004EB83
:1012C800440310481844FFF75FFA0134E4B2012CD4
:1012D800F5D9FFF73FFF0C48FFF788FEFFF7A4FF9B
:1012E8001120FFF7C9FF01219620FFF73DFF3A20A3
:1012F800FFF7C2FF0520FFF7CFFF2920FFF7BCFF4C
:1013080010BD00BF380000202C00002038B505466D
:101318002C20FFF7B1FF00240AE035F81400000A7A
:10132800FFF7BAFF15F81400FFF7B6FF0134A4B2AF
:10133800B4F5A04FF1D338BD81F0004102E000BF01
:1013480083F0004330B54FEA41044FEA430594EA7D
:10135800050F08BF90EA020F1FBF54EA000C55EAB8
:10136800020C7FEA645C7FEA655C00F0E2804FEA89
:101378005454D4EB5555B8BF6D420CDD2C4480EA6B
:10138800020281EA030382EA000083EA010180EA9B
:10139800020281EA0303362D88BF30BD11F0004FE9
:1013A8004FEA01314FF4801C4CEA113102D040421F
:1013B80061EB410113F0004F4FEA03334CEA13335A
:1013C80002D0524263EB430394EA050F00F0A78072
:1013D800A4F10104D5F1200E0DDB02FA0EFC22FA6D
:1013E80005F2801841F1000103FA0EF2801843FA61
:1013F80005F359410EE0A5F120050EF1200E012A52
:1014080003FA0EFC28BF4CF0020C43FA05F3C0188F
:1014180051EBE37101F0004507D54FF0000EDCF108
:10142800000C7EEB00006EEB0101B1F5801F1BD3B1
:10143800B1F5001F0CD349085FEA30004FEA3C0CB5
:1014480004F101044FEA445212F5800F80F09A80AB
:10145800BCF1004F08BF5FEA500C50F1000041EBAF
:10146800045141EA050130BD5FEA4C0C404141EBB3
:10147800010111F4801FA4F10104E9D191F0000FDA
:1014880004BF01460020B1FA81F308BF2033A3F15D
:101498000B03B3F120020CDA0C3208DD02F1140C54
:1014A800C2F10C0201FA0CF021FA02F10CE002F18F
:1014B8001402D8BFC2F1200C01FA02F120FA0CFC88
:1014C800DCBF41EA0C019040E41AA2BF01EB0451D1
:1014D800294330BD6FEA04041F3C1CDA0C340EDCCF
:1014E80004F11404C4F1200220FA04F001FA02F312
:1014F80040EA030021FA04F345EA030130BDC4F1D0
:101508000C04C4F1200220FA02F001FA04F340EAC4
:101518000300294630BD21FA04F0294630BD94F075
:10152800000F83F4801306BF81F480110134013D5C
:101538004EE77FEA645C18BF7FEA655C29D094EACD
:10154800050F08BF90EA020F05D054EA000C04BF4B
:101558001946104630BD91EA030F1EBF0021002036
:1015680030BD5FEA545C05D14000494128BF41F0D5
:10157800004130BD14F580043CBF01F5801130BD39
:1015880001F0004545F0FE4141F470014FF00000C4
:1015980030BD7FEA645C1ABF194610467FEA655C75
:1015A8001CBF0B46024650EA013406BF52EA033517
:1015B80091EA030F41F4002130BD00BF90F0000F05
:1015C80004BF0021704730B54FF4806404F1320441
:1015D8004FF000054FF0000150E700BF90F0000FFA
:1015E80004BF0021704730B54FF4806404F1320421
:1015F80010F0004548BF40424FF000013EE700BFF1
:1016080042004FEAE2014FEA31014FEA02701FBF80
:1016180012F07F4393F07F4F81F06051704732F0B2
:101628007F4208BF704793F07F4F04BF41F4002109
:10163800704730B54FF4607401F0004521F0004167
:101648001CE700BF50EA010208BF704730B54FF0F1
:1016580000050AE050EA010208BF704730B511F0F2
:10166800004502D5404261EB41014FF4806404F12A
:1016780032045FEA915C3FF4D8AE4FF003025FEAB0
:10168800DC0C18BF03325FEADC0C18BF033202EB34
:10169800DC02C2F1200300FA03FC20FA02F001FA8E
:1016A80003FE40EA0E0021FA02F11444BDE600BF31
:1016B80070B54FF0FF0C4CF4E06C1CEA11541DBFE0
:1016C8001CEA135594EA0C0F95EA0C0F00F0DEF8AB
:1016D8002C4481EA030621EA4C5123EA4C5350EA90
:1016E800013518BF52EA033541F4801143F48013E1
:1016F80038D0A0FB02CE4FF00005E1FB02E506F072
:101708000042E0FB03E54FF00006E1FB03569CF0C6
:10171800000F18BF4EF0010EA4F1FF04B6F5007FCC
:1017280064F5407404D25FEA4E0E6D4146EB06063E
:1017380042EAC62141EA55514FEAC52040EA5E50C7
:101748004FEACE2EB4F1FD0C88BFBCF5E06F1ED871
:10175800BEF1004F08BF5FEA500E50F1000041EBA8
:10176800045170BD06F0004646EA010140EA020055
:1017780081EA0301B4EB5C04C2BFD4EB0C0541EA77
:10178800045170BD41F480114FF0000E013C00F38C
:10179800AB8014F1360FDEBF002001F0004170BDB0
:1017A800C4F10004203C35DA0C341BDC04F11404C9
:1017B800C4F1200500FA05F320FA04F001FA05F255
:1017C80040EA020001F0004221F0004110EBD37022
:1017D80021FA04F642EB06015EEA430E08BF20EA4E
:1017E800D37070BDC4F10C04C4F1200500FA04F3F1
:1017F80020FA05F001FA04F240EA020001F0004183
:1018080010EBD37041F100015EEA430E08BF20EAF5
:10181800D37070BDC4F1200500FA05F24EEA020E3D
:1018280020FA04F301FA05F243EA020321FA04F06C
:1018380001F0004121FA04F220EA020000EBD37023
:101848005EEA430E08BF20EAD37070BD94F0000F23
:101858000FD101F00046400041EB010111F4801F57
:1018680008BF013CF7D041EA060195F0000F18BF08
:10187800704703F00046520043EB030313F4801F44
:1018880008BF013DF7D043EA0603704794EA0C0FFE
:101898000CEA135518BF95EA0C0F0CD050EA410614
:1018A80018BF52EA4306D1D181EA030101F0004191
:1018B8004FF0000070BD50EA410606BF10461946B9
:1018C80052EA430619D094EA0C0F02D150EA0136C5
:1018D80013D195EA0C0F05D152EA03361CBF104606
:1018E80019460AD181EA030101F0004141F0FE41A5
:1018F80041F470014FF0000070BD41F0FE4141F429
:10190800780170BD70B54FF0FF0C4CF4E06C1CEA28
:1019180011541DBF1CEA135594EA0C0F95EA0C0FDD
:1019280000F0A7F8A4EB050481EA030E52EA033598
:101938004FEA013100F088804FEA03334FF08055B9
:1019480045EA131343EA12634FEA022245EA1115E6
:1019580045EA10654FEA00260EF000419D4208BF97
:10196800964244F1FD0404F5407402D25B084FEA44
:101978003202B61A65EB03055B084FEA32024FF4F0
:1019880080104FF4002CB6EB020E75EB030E22BF4D
:10199800B61A754640EA0C005B084FEA3202B6EB0D
:1019A800020E75EB030E22BFB61A754640EA5C00BC
:1019B8005B084FEA3202B6EB020E75EB030E22BF4C
:1019C800B61A754640EA9C005B084FEA3202B6EB4D
:1019D800020E75EB030E22BFB61A754640EADC000C
:1019E80055EA060E18D04FEA051545EA16754FEA6E
:1019F80006164FEAC30343EA52734FEAC2025FEA8C
:101A08001C1CC0D111F4801F0BD141EA00014FF01A
:101A180000004FF0004CB6E711F4801F04BF0143EB
:101A28000020B4F1FD0C88BFBCF5E06F3FF6AFAE07
:101A3800B5EB030C04BFB6EB020C5FEA500C50F197
:101A4800000041EB045170BD0EF0004E4EEA11311A
:101A580014EB5C04C2BFD4EB0C0541EA045170BD21
:101A680041F480114FF0000E013C90E645EA060E65
:101A78008DE60CEA135594EA0C0F08BF95EA0C0F93
:101A88003FF43BAF94EA0C0F0AD150EA01347FF4DB
:101A980034AF95EA0C0F7FF425AF104619462CE7B2
:101AA80095EA0C0F06D152EA03353FF4FDAE104615
:101AB800194622E750EA410618BF52EA43067FF466
:101AC800C5AE50EA41047FF40DAF52EA43057FF4F6
:101AD800EBAE12E74A0011D212F5001211D20DD561
:101AE8006FF47873B3EB62520ED44FEAC12343F01C
:101AF800004343EA505323FA02F070474FF00000C6
:101B0800704750EA013002D14FF0FF3070474FF074
:101B180000007047014B1868704700BF4000002064
:101B280030B5141E05469BB0184605DA8B234FF0D6
:101B3800FF302B601BB030BD4FF40273ADF80C3092
:101B48000CBF234604F1FF33029305934FF6FF734E
:101B580000910491ADF80E3002461E9B6946284656
:101B680000F072F8431CBCBF8B232B60002CE1D023
:101B78000022009B1A70DDE707B5009313460A465A
:101B8800014603480068FFF7CBFF03B05DF804FB8C
:101B9800400000202DE9F0478E6882469E420C46A0
:101BA8009046994637D88A8912F4906F31D002232B
:101BB800256809696F1A656905EB450595FBF3F515
:101BC80009F101033B449D4238BF1D46530530D5FA
:101BD800294600F035FB064650B90C234FF0FF307C
:101BE800CAF80030A38943F04003A381BDE8F08719
:101BF8003A46216900F0B4FAA38923F4906343F0CC
:101C08008003A38126613E4426604E466561ED1B34
:101C1800A5604E4500D94E4632464146206800F040
:101C2800AAFAA36800209B1BA36023681E442660B1
:101C3800DCE72A4600F05EFB06460028E2D121696F
:101C4800504600F0B1FAC8E72DE9F04F9DB0039374
:101C58008B8980461D060C4616460FD50B696BB955
:101C6800402100F0EDFA2060206128B90C23C8F863
:101C780000304FF0FF30C7E0402363610023099331
:101C880020238DF8293030234FF0010B8DF82A30AE
:101C980037463D4615F8013B0BB1252B3ED1B7EB36
:101CA800060A0BD05346324621464046FFF772FFDC
:101CB800013000F0A480099B534409933B78002B22
:101CC80000F09D8000234FF0FF32CDE905230493F7
:101CD80007938DF853301A932F46052217F8011BE6
:101CE8004F4800F02FFA049BD0B9D90644BF2022F0
:101CF8008DF853201A0744BF2B228DF853202A78D9
:101D08002A2A15D02F4600200A25079A394611F8A5
:101D1800013B303B092B4DD9B8B10FE02F46B8E74E
:101D28003F4A3D46801A0BFA00F018430490D3E767
:101D3800039A111D12680391002A01DB079204E03F
:101D4800524243F00203079204933B782E2B0CD1A6
:101D58007B782A2B33D1039B02371A1D1B68039209
:101D6800002BB8BF4FF0FF3305932E4D032239786F
:101D7800284600F0E7F938B14023401B03FA00F089
:101D8800049B0137034304933978062226487E1CB6
:101D98008DF8281000F0D6F9002838D0234B13BB53
:101DA800039B073323F0070308330393099B4B4432
:101DB80009936DE705FB023201200F46A6E70023D1
:101DC8000A25194601370593384610F8012B303A91
:101DD800092A03D9002BC8D00591C6E705FB0121C4
:101DE80001230746F0E703AB00932246104B04A9F2
:101DF8004046AFF30080B0F1FF3F8146D6D1A389BA
:101E08005B063FF536AF09981DB0BDE8F08F03AB10
:101E180000932246064B04A9404600F081F8EAE701
:101E2800D8C40008DEC40008E2C4000800000000AE
:101E38009D1B00082DE9F04791461F468A680B69EB
:101E480006469342B8BF1346C9F8003091F84320BC
:101E58000C46DDF8208012B10133C9F80030236840
:101E6800990642BFD9F800300233C9F80030256816
:101E780015F0060507D104F1190AE368D9F800201E
:101E88009B1AAB4229DC94F843302268003318BF10
:101E9800012392062ED404F1430239463046C04746
:101EA800013021D02368E56803F00603042B18BF2E
:101EB8000025D9F800204FF0000908BFAD1AA36823
:101EC800226908BF25EAE5759342C4BF9B1AED183D
:101ED8001A344D451AD1002008E0012352463946EC
:101EE8003046C047013003D14FF0FF30BDE8F087DE
:101EF8000135C2E73020E11881F843005A1C94F8F4
:101F080045102244023382F84310C4E701232246D5
:101F180039463046C0470130E6D009F10109D8E713
:101F28002DE9F04301F1430C0C46097E85B06E297A
:101F38001746064698460C9A00F0B38022D86329C3
:101F480036D00AD8002900F0B980582900F08380DB
:101F580004F1420584F8421032E0642901D069296D
:101F6800F6D120681368050603F104012AD51B6819
:101F78001160002B03DA2D225B4284F843206F485E
:101F88000A2239E0732900F09D8008D86F2920D0F3
:101F98007029DDD1236843F02003236003E075290D
:101FA80017D07829D4D17823654884F8453055E08E
:101FB800136804F14205191D1B68116084F842304A
:101FC80001238CE01B6810F0400F116018BF1BB292
:101FD800CFE713682568181D1060280601D51B680F
:101FE80002E06806FBD51B886F2914BF0A22082265
:101FF8005248002184F843106568002DA560C0F29E
:102008009580216821F004012160002B3DD1002D2D
:1020180040F08E806546082A0BD12368DB0708D577
:10202800236962689A42DEBF302305F8013C05F156
:10203800FF35ACEB05032361CDF800803B4603AACE
:1020480021463046FFF7F6FE01304DD14FF0FF3004
:1020580005B0BDE8F083394884F845101368216855
:102068001D1D1B6815600A060BD5CA0744BF41F041
:10207800200121601BB9226822F020022260102270
:10208800B7E74D0648BF9BB2EFE76546B3FBF2F1F1
:1020980002FB1133C35C05F8013D0B460029F5D15D
:1020A800B9E713682568181D6169106028061B6860
:1020B80001D5196002E06A06FBD519800023654640
:1020C8002361B9E71368191D11601D686268002152
:1020D800284600F037F808B1401B60606368236148
:1020E800002384F84330A7E723692A463946304657
:1020F800C0470130AAD023689B0713D4E068039B2C
:102108009842B8BF1846A3E701234A4639463046E5
:10211800C04701309AD00135E368039A9B1AAB4255
:10212800F2DCEBE7002504F11909F5E7002BACD147
:10213800037804F1420584F842306CE7E9C40008EA
:10214800FAC4000810B5C9B202449042034601D14E
:10215800002303E01C7801308C42F6D1184610BDEC
:1021680010B5431E0A44914200D110BD11F8014B2D
:1021780003F8014FF7E7884210B501EB020307D8CF
:10218800421E99420AD011F8014B02F8014FF8E7B4
:102198008342F5D98118D21AD34200D110BD13F861
:1021A800014D01F8014DF7E738B50546002943D040
:1021B80051F8043C0C1F002BB8BFE41800F0D0F80D
:1021C8001E4A1368104633B9636014602846BDE898
:1021D800384000F0C6B8A3420BD921686218934270
:1021E80001BF1A685B685218226063600460EDE7FB
:1021F80013465A680AB1A242FAD919685818A04277
:102208000BD120680144581882421960DED1106849
:102218005268014419605A60D8E702D90C232B6030
:10222800D4E7206821188A4201BF1168526809184A
:10223800216062605C60C9E738BD00BF38010020DA
:1022480070B5CD1C25F0030508350C2D38BF0C25BD
:10225800002D064601DBA94203D90C233360002078
:1022680070BD00F07DF8214A1468214691B9204CD0
:1022780023681BB9304600F063F8206029463046D1
:1022880000F05EF8431C24D10C233046336000F084
:1022980068F8E4E70B685B1B18D40B2B0FD90B60AD
:1022A800CC18CD50304600F05CF804F10B00231D2B
:1022B80020F00700C31AD3D05A42E250D0E74B6847
:1022C8008C4216BF636013600C46EBE70C46496806
:1022D800CCE7C41C24F00304A04205D0211A3046E0
:1022E80000F02EF80130CFD02560DBE73801002060
:1022F8003C010020F8B5074614460E4621B9BDE852
:10230800F8401146FFF79CBF22B9FFF74DFF25465D
:102318002846F8BD00F026F8A0420FD221463846DC
:10232800FFF78EFF05460028F2D031462246FFF718
:1023380017FF31463846FFF737FFE9E73546E7E745
:1023480038B50023054C054608462360FEF712F809
:10235800431C02D1236803B12B6038BD4001002023
:102368007047704751F8043C181F002BBCBF0B582E
:10237800C0187047537461636B206672616D653A6B
:102388000A000000205230203D2020253038580A0D
:1023980000000000205231203D2020253038580A06
:1023A80000000000205232203D2020253038580AF5
:1023B80000000000205233203D2020253038580AE4
:1023C8000000000020523132203D20253038580AC4
:1023D80000000000204C52203D2020253038580AAB
:1023E80000000000205043203D2020253038580AA6
:1023F8000000000020505352203D20253038580A54
:10240800000000004653522F4641523A0A0000008D
:102418002043465352203D2020253038580A0000DA
:102428002048465352203D2020253038580A0000C5
:102438002044465352203D2020253038580A0000B9
:102448002041465352203D2020253038580A0000AC
:10245800204D4D464152203D20253038580A000075
:102468002042464152203D2020253038580A00009D
:102478004D6973630A000000204C522F4558435F92
:1024880052455455524E3D20253038580A00000018
:102498005B486172644661756C745D0A00000000F7
:1024A8005B4275734661756C745D0A005B557361B8
:1024B80067654661756C745D0A00000001030102DE
:1024C8000100010C58DF38D718DFF8DEF8E6F8EE1F
:1024D800D8EE97E6B4CDF1BC6FAC4FAC4FAC0DA4C1
:1024E800EDAB2EACCC9BC5614461878988A947B107
:1024F800E8B9037972D58752A0008100A418E528AD
:102508004631A318E308C318011000080008610841
:10251800841923114000E41825298731E839041962
:10252800A310C318C318E318A110C220C330C348AE
:10253800E4684268A37028926CA3D0B414CE96D6EF
:1025480097D636CE12A52F948A822AAA88A18EBB46
:1025580056DED6C6D6CE75D675DE14D6D3CDF4CD16
:10256800D3C5F4BDB4CDF5D516CE475240084010BA
:102578004110E42059CEBFF73DE73EE73EEF36BDB8
:10258800C96133BCDAF637E658EEAC930E9CFAF61E
:10259800FAEEFAE695BDF7D554C5F7E519EE1BE650
:1025A800D38BB3837ACEDCDE3DE75DE75DDFD7AD65
:1025B800B28C559D559D75A5D7B559C638BE38BE40
:1025C8007AC639BED7DED7DEF8E6D8E6B7E616D63D
:1025D80053BD6FA40E9C2FA44FA44FAC4FAC4FAC6F
:1025E8004FAC4FAC2EB4677223410351879188B129
:1025F80067B18699C98A52A5E10841008420A420C0
:10260800E4200411C308C318211062188210400086
:10261800E2088521E31862102529E8396629E310C4
:1026280082084108E31861102010C3300449824829
:1026380004614892EEBB12DDD4E556E697E6B7DEB4
:10264800B8DEB8DEF9E6D5CD54D5D0CBE9A1AAA23B
:1026580056E6D7D695CEB6DEF3D5F3CDF4D5B3C5C9
:1026680092BDF4C5D5D590A48C7B022140086008A2
:1026780020088210F8BD7EE75EDF3EDF3EE7D083AC
:102688002220C96154C579EEB9F678EE94CDB5CD5E
:10269800DAE61BEFFBE6FBF654C5D6DD9BF69CEEAF
:1026A800349CCF6AD8BD7EEFBEF77EEFFFF775A5E5
:1026B800B28CB284D38C96A559BE59BE79C69AC637
:1026C80059BEF8B5D8EED9EE98E6D5CD90AC8C8B3E
:1026D8002B83EA7AEA7A0A7B4B83AD934FA490ACBA
:1026E8004FA4EE9B6C9B886A022940188250479938
:1026F800A8B9C8A92361B0A40A5B61104218A42034
:10270800A210C2008208452124212421442903194A
:10271800A208042104218218663186316100200054
:102728004100610820000008A330C448A4506A8A08
:10273800CEABB5DD36E697E696E676E676E676DE65
:10274800B7E6D8DE97DE98E6B5D5F7FD51D4E78130
:1027580012CD56DE75D613CED3CD92C5F4CDF4CDB9
:1027680014CE15CE2F9C6862643940086008600852
:102778004008821076ADFFF71DD73DD7B7AD6A5236
:10278800A8410118654950A474CDB9F698EE37DE12
:1027980058D61BEFFBE61BF7B5CD75CD9AF67BE651
:1027A800DEEEBABD4D6B76ADB3946942149DD7ADDC
:1027B8002C5BE308718418B679BE18B639BE59BEC9
:1027C80059B639B6F6DDF2BCEE9B2B83EA7AEA7A83
:1027D800EA7AA972A96A475A2752475A475A475A62
:1027E800C96A6B7B0B838862C118200800204248A5
:1027F8004689E9A98789E7714D838218A210A2103A
:102808000311C10861086529073A073A4842E739C0
:10281800E420C3200429E428E42061080000200003
:102828002000000020108228E55087710DA3C76999
:102838000B83D8E6B7D696CE35D634DE55E676E69F
:1028480096DE96DE96D635D636DE36EE91CC4469DF
:10285800ADB336EED4CD14CEB3CD15DED4CD93BD05
:1028680015D66FA408626541E328400820000000DF
:102878002000820855A59FE73DD739B6B38C6A4A30
:10288800621062204C8313BD34C574CD17DEB9E6DF
:1028980037CEBADE1BEFFAEE74C595CD79E61CF794
:1028A8005EF72F6B410882080000A2088A4214953F
:1028B800493A693AB28418B6D7ADF7AD39B618AE09
:1028C80039B6F8A50B7B0A7B0B7B0B7BCA72696A4E
:1028D800075AC651654123310229E2206010400899
:1028E800E220E541A962EA6A653900080008001893
:1028F800614046792AA26781C44861104411810069
:10290800231903210000C310A629C2080419652948
:102918002531A3204210042182100000000061101C
:10292800E32804392551A448E971AC8A255182303D
:10293800A54156C6B7CE96CE96DE96E676E655DE25
:1029480055D675D6B6D6B6DE55D635D6AC9BC2505A
:10295800C6792FB415D614CE93CDB4D552C515CE9D
:102968006F9C46620439C3308218200800000000BA
:1029780021004100D494DFEF1DDF9EE7F8BDA739A1
:102988008639F4ACF7DD58E6D6DDD6D5D6CD17CEE8
:1029980099DE38CE3BEF1BEF2F9C32B5B9E6FBEE44
:1029A80018CE2D63AF73000061004100283A549D92
:1029B8006D5BAE631495759D759DB7A5D7A5B79D3D
:1029C800F8A518A6C96A68620652A5492339E230F3
:1029D800A1288120A1208118A118C118C118A11807
:1029E800801080104431074A495A6110000060087D
:1029F800001042402679EA916340000864112309D7
:102A0800A108E220E320A21024196100A210C31833
:102A1800C32001084108610020008110243165416C
:102A28006651E44863504A826A7AC33804314429BB
:102A3800C11894B597DE76D696DE76DE55D654CE96
:102A480054CE54D613C6F3C5F4C593BDE65982488F
:102A5800C7790349A44111ADF5D594D594C5AC7B8C
:102A680026524341621821100008000000000000AF
:102A780021082100518CDFF71CDFDBD6F8C5319423
:102A8800B7CD39E6F7DD18E638E638E638DE18D689
:102A9800DBE679D6DAE63BEFD5CDD5CDD9E67CF7BE
:102AA80099D6083A041900008208C310F394B28436
:102AB8006D5B92843495727CF48C769518A659AE29
:102AC800F89DF89DA5412331C12881204018401860
:102AD800401861206118811881186018601060180A
:102AE80040182010612061206541443120002000F9
:102AF8000000212022384761665100080311A521F2
:102B08006000611004294008C2100319042101085B
:102B1800000800088108C2084319C639A6510551A2
:102B2800A350A4580A8AC8710020E3202319231946
:102B38004429CD83B9E636DE76DE75D655CE75CE18
:102B480054CE34CEB2B591B531ADA441802882407F
:102B580086616128000002210E9430A40A73A4390A
:102B68006431601841080000000000000000000007
:102B7800000000001084DFF7BAD69AD69ADE75C531
:102B880018E6D7E517E6D6DD17E6F7DD99E6BAE6E3
:102B9800FBE63CEFFBEE3BF7D9E6F5CDFAEE5BEF53
:102BA800BDF734A50C5BB28CD39418B6F394693A8C
:102BB800CE63148DAE63927CD7A539AE18A6F89D66
:102BC800D795189EA1288020A128E230033903391F
:102BD800E338E338E330E330C230A230A230A23029
:102BE800A238A2386228A23061280331611020007F
:102BF800200820100020A338A328611003112419ED
:102C0800242141106110E31803194100000021102C
:102C1800E428452965218521852924390451C4588A
:102C2800A460C889E9710020A22004214419442124
:102C38000321485AB9EE57E6B8E6B7DE96D675D6F8
:102C4800F3C592BD14C672B5C4416020402841281E
:102C58000018200861082000C2202852A539232125
:102C68006008000840004000200000000000000844
:102C780000082108CF73BEEFF7B5DADEFBEED7D533
:102C8800B6E5D7ED4B8BA97A0F9CD6D5FBF6FBEEB4
:102C98001CEFFBEEDAE63BEFB9E678D6DAE61BE79F
:102CA80099D6B6B5F49CCF734D63283A44192832A7
:102CB8006D5B8D5BEF6B55955595B79DD795978D4A
:102CC800189EB78DC1382349C65907620762E76164
:102CD800C761C661A659C761C761C761C769A769E6
:102CE800A769C771086A6551E4480341E330A22027
:102CF800401000100010622082186108E3100319C8
:102D08000421831800086108C210031965294529A0
:102D18006631A6312321C218A5410449C458C468A4
:102D28006779C88162208220C320E420042186318B
:102D38002529E32807520B73ED8B32B515CEF4CD58
:102D4800B3C5D4CD11B5054A6018812041200010C3
:102D58000000610061006108A21881104000400075
:102D6800000000084000400020000000000861202A
:102D780086412008AD737CE778C65CEF58DEF3BC6B
:102D8800EFAB087AA0384030CE9B78E6FBF6DBEE56
:102D98001CF71CF7FBEEFAEE78D658D6FBE6DADE1F
:102DA800C739E318620041004100E3100732693A6D
:102DB80089420C53148DB28451749274558576856A
:102DC8007685D88DE6692772487A69824982498270
:102DD800497A287A287A497A287A087A08820882E9
:102DE800E881E8818669A6694459E3480349C340F4
:102DF800A238E4406228411820004000C20845215A
:102E08008318C420A2184008C210494249426529C3
:102E18000421E320443103398661A358E5684671EB
:102E2800097A4238C210A210A218C3206639463166
:102E3800452924298110A1188018E130F2B4D5D58C
:102E4800F5D5F1B4C551A120601041180118010849
:102E58004100610083082108000020004000200094
:102E6800000000082000400000080018E7610C83FB
:102E7800AA7220102B63DDF71ADF37C654BD2FA4C2
:102E88000872E3504030E56174CD99EEFBF61CF70B
:102E98003CF7FBEEFBEE7DFF58D69ADE7DF7F7BDDB
:102EA800E318821041002000E310E731AA42AA4249
:102EB800483ACF6B30744D530C4BF0631485968DA4
:102EC800D78D189648824882488249824982498A21
:102ED80049824982698A698A49824982498A498A32
:102EE800088AC7818679857144594359856965710E
:102EF800267146710549C22881102000200024212E
:102F0800E418C420453141088208A62965214521D5
:102F1800E420C328E4404661E4680579E570E98166
:102F2800A3388228E2100319E318042987392529D0
:102F38006629A63181086010C228444154CDF6DDC7
:102F480013BDE55100284018A11841180110420886
:102F5800A200A2002100210821004000400000003A
:102F6800000800100008000861308A82CFB3CFB390
:102F7800AA824128C64178D674B534B591A469723D
:102F880024518140E5612A8BF6DDBAEEFBEE3CF771
:102F98003CF71BEF1BF71BEFBADEFBE67DEF108457
:102FA800210882100000C308C7296942693A89428A
:102FB8008942CA4ACB4A6D5B2C534D53B374768D04
:102FC8007685B78507820782088228822882498AFF
:102FD80049824882498248824882698A498A288285
:102FE800E781A679A78104694469E679C689A6912B
:102FF80088994789677965594441811800006110AB
:103008006631C5182429C21882080411041124192C
:1030180024298228C3482571C478C578A8812559F0
:1030280000104429E3182421E31825294529862975
:1030380065296529C218000800100C8358EE50A4B1
:103048006549201862306120611021082108620852
:10305800820082000100000800004000810000009A
:10306800000800100020A6590C9BF0C3F0C393DCA5
:1030780031BCE7612439CE8B34BDD2B4D2B46D9360
:10308800C3484D9BF1C490B417DE3CF71CEFFCEE2F
:103098003CEFFBEE3BF71BEFFBE63DE718C6831062
:1030A800420841088200283A283A2C5BAE6B073266
:1030B80069420B530C536D5BEB4AEB42316C35851F
:1030C80055859785E779E7790782288228822882BB
:1030D800288228824882287A4882698A2882078238
:1030E800E781C68165712471A68907A2C699869968
:1030F800A79967998899478986714449A11800005A
:10310800A318052904292429610804118621C20865
:103118000329412805610579C4802581A7792128DB
:10312800C3180311243124298531C7314521862943
:103138004429032124310008444154C58D8B0339A7
:103148004020C23062284110200020006208A308F5
:103158008200A208620800080008000000000000C1
:1031680082288659EB8ACEABCFBBF0CB10CCD3DC10
:1031780055E575DDB6D595CDD7DDB7DDB7DDB6DD5F
:1031880092BC96DD73D533C578E63CF73DEF3DEF4D
:103198007DF75CF75CF7FAE61BE75DEFC8310000E6
:1031A80083104208C72969420832CE6BF39448421B
:1031B800AA4AAA4AAA4A8A42CB4ACB422D4B316430
:1031C800D3747264E779C779E779E779E779077A99
:1031D800087A087A2882077A27822882E781C681B6
:1031E800E789C6894569A689C7A986B1A6A9A6A1FE
:1031F800A699A8A168A947A967998571234181184B
:103208000000A42845310429C31862004519031990
:103218006118823845712579E478C781C3408220D6
:10322800E3182419032981188531C739A631453196
:10323800E3286118C22840184439EB6AE328612062
:10324800A228822041104008610861008208C31842
:10325800A210C210810820088228C238A651896AA3
:10326800AD9330AC2FB491C491CCF3D4D2D434DD27
:10327800B6DDF7DD17DE38E639E619E639EE39E668
:10328800D7D558DEB5DD58E6FBEE1CE73DE73CE751
:10329800FBE61AEF3BEFFAE6FEFF8E6B2100A30870
:1032A800A310621086212832E729AA4AF3942C5BDE
:1032B800283A2842694AAA4AEB526A3AE821492A36
:1032C8006A2AC811C779C779C779C779E779E779C9
:1032D800E78108820782C779E781C781A681C691FD
:1032E800C79186898681E8A1A7B145B186B1A6B103
:1032F80086A187A967B168B187B1669165712449CC
:1033080000084108E420042166316208C3106529D9
:103318006118044925690471A67944596128C220B5
:1033280082104629C218A21024292431043165418B
:103338008A6A2C7B07522331E220C118A118A220E7
:10334800822041184000400081088108A210C3185B
:103358008218A210A10844316D93AEB30FBC91BC82
:10336800F2BCD2C432C512C573D5B4DD33C5B4CDF1
:1033780078DE98DEDAE659DE7AEE9AF67AEE9AE6A2
:103388009ADE78CE58E6BAEE1CEF3DE77EEF7EEF88
:103398003CE75BF7F9E6FEFFD2948208C410830885
:1033A80021008210C308C308A629483A6D63CB528E
:1033B800073A894ACA526942083A293249320822E8
:1033C8008A32AF53C779A671A671C779C779C77909
:1033D800C779C779C781C781C789A6898689E799C7
:1033E800C7A12589A8A1C8A1C7A9A6B185B166B1F9
:1033F80087B187A988B167A987B167A9669145612F
:1034080024314100421025290529C3188210821051
:10341800A228455124694571C671A1382010C218E7
:10342800E418C420A108E2182429CB6A52AC97DD1D
:1034380096DDD3B4A962E220E118C110C218601069
:1034480020100010800040008108C208E318E4281A
:10345800A2208110A0000229AEABB3E414ED33D54D
:1034680094D5D5DD15D656DE36DE36D656D656D6A2
:1034780097D6D9D6D9DEDAEEDBEE9AEEDCF6DBE6C5
:10348800BAD6FAD6BAF6DBEE5DF75EEF1DDF3DE79A
:103498005CEF1AE79CF7D5BDA210A308A30821008A
:1034A800A310A310E308A208041144196942CB52DF
:1034B800C631073A083AE73108320832A619A7197F
:1034C8002C43F47CA679A671A671A67186798679B3
:1034D800A679C779E6798571C789669187A1E8A930
:1034E8008691A689C8B986B1A7A9C7B187A987B1A6
:1034F80088B967B187B167B147B947B167A966911C
:103508004461024121002110A4304529C10800006E
:10351800A340C568A570677966616120A210031190
:10352800821062206020E97232BD37DEF6D591AC98
:10353800CA7224398220A220A218821861082100A8
:103548004100610042088208A210C318C318C318BA
:10355800A210A210611041100C6BF7CDF7D517D649
:1035680017DE38DE58DE38DE79E699E658DE58DEB2
:1035780099E699E6FBEEFBEEFBEEFBEE1CF7DAEEC6
:103588009AE6DAE63CF71BF73CF7FBEE1CEF1CEF7C
:10359800FBE69EF738C60319A210C31041000000CD
:1035A800A208C3080219A110A110E21865298529EB
:1035B800A6298629A72967214611E9214B326B32B2
:1035C8004A2ACD3AA671A671A671A671867986791E
:1035D800A679C679A671A6798681A799A7A1C8A94F
:1035E8004589E791C8B986B187B166A9A7A986A117
:1035F80008AA8699C7A1A7A987A967A187A18691C3
:10360800658124714531A3208218031903194010DC
:10361800A348E670E680678145590010E218E21079
:1036280020080010ED9316DE98EE12BD2B7B644146
:1036380081208120A220821841104108200000002A
:103648002000410042088208A310C318E318C318D9
:10365800A2108210C21841100329B6C579DE79DE9E
:1036680079E659E699E6BAE6BAE6BAE699E679DE7F
:1036780079DEBAE6BAE61BEF1BEFDAE6DAE6DAE657
:10368800DAE6FBEEDBEEFBEE3CF73CF73CEF1BEF3C
:103698005CEFDBDEA7390000610821000000410073
:1036A80004110411C210E218E21020002000610089
:1036B8004519E829C8218B3A0922AC32736C115C90
:1036C8004B224A2286718671867186718671867947
:1036D800867986798571A6796681A799E8A987A1EF
:1036E800459108A266B1A7B946A9E8B9E7A98691A4
:1036F8000371247103794581A691E79908A2E8A18D
:103708006699C49066516539A1106000242945491D
:103718004661A468E5804681E350E6494321A1104B
:103728000008CB6A57DEF5D570A4475AE230601816
:103738004018C228611840102008000021004100EC
:103748006108820862088210A310C318E318C3181E
:10375800A210A210A218C22081180B6B9AE659DE9B
:1037680058DE79E69AE6FBEE1BEFDAEEBAE6DBEE18
:10377800DBEEBAE6BAE6FBEEFBEEFBEE1BEF1BEF69
:10378800DBE6BAE61BEF1CF73CF7DAE61BEF3CEF8B
:103798009EFF2C6300006108610800006100A20818
:1037A8000411C308C3080411C30820004100E40839
:1037B800E829AB3A8F536E4B2D3B0D3B315CB46C13
:1037C8006E43460186698669867186718671867937
:1037D8008679867986798681A791C79909AA4591BC
:1037E80087A1E8A9A7B187A9A7B1A7A9A6996581C3
:1037F8008579C689C791A691868965818689C7A179
:1038080087A926A946714549A1080219285AA76916
:103818000569C470058125796C9BF9E6AB6B0000DE
:103828006539F8D594C50B73643981206018A220D6
:103838006118201000000000000020004108410825
:10384800610862088210A210A310C318C310C21026
:10385800A210A210C218C218A218E32095BDDAEE71
:1038680059DEDBEEFBEEDBEEDAEEFBEEFBEEFBEE1B
:10387800FBE6DBE6FBEEDAE6BADEBAE6DAE6DAE63D
:10388800BADEBADE59D679DEFBE63CEF3CEF3CEF18
:1038980034AD41086108620800002100C310C3105C
:1038A800C308A208A308A3008300C408E8298B3A28
:1038B8002D4B6E4BEC3A4A2AE919091A2D3B8F4BCE
:1038C8006E432D3B86698671867186718671867115
:1038D8006679657966896689C799E8A1E8A14591FD
:1038E800E8A9A7A9A8B1A7A9E8A9A799C378089A98
:1038F80008A2E8A9A7A9A7A9A7A186998699A7991F
:1039080087A146A167994561E228C539AA72676906
:10391800C4600571E470A99A56E6D7DE52A5A541A0
:1039280054C5D3BC0752A1288120A1206118611871
:1039380020100000200820084108610841084108BB
:10394800610882088210A210C318C318C210A210FE
:10395800A210A210A210A21881188218695ABAE6F9
:103968003CF799DEFBEE5DF7FBEEFBE65DF779DEF3
:1039780034ADF3A4F3A434ADB6BD58CE79D699D6F8
:10398800BADEDADEBADE3CEF1BE7FBE63CEFDEFF31
:10399800AA520000410800002000C310C310A2086A
:1039A8008208A308A40883088300C508C829293207
:1039B800092AE921E8212A2A092AC819C821461111
:1039C800E8216E5365696569656965696571857121
:1039D8006679458166918799C7A108A2869987A1CA
:1039E800E8B167B187B1A7A129A20479E791A7999E
:1039F80087A946B147B187B187B167A946A166A132
:103A0800A7A1C7A127A1668144516541C759255976
:103A18000569E47024694EBCB6EE13C6F4C537DEFA
:103A2800AE93E440A220A228C228811840100008C2
:103A3800000020086108820862086108210021004E
:103A48006108A2108210A210C318C318C310A210D4
:103A5800A21082108210C218C218C220C220CE83BF
:103A68001CEF1BEF1BEF1BEF7DF759D68E7BA6399A
:103A78002429C320A218E320042103212429C739BB
:103A88006952AA528E73719454ADBAD6BAD6718C53
:103A98006108410020002000C31004198208820038
:103AA8008208A20863088308630883088721E9312C
:103AB800C82987214619C408A3088308420083102F
:103AC8000521E42045694569456965716571657138
:103AD800867946896699A7A1C7A1E8A18691C8A950
:103AE800C8B167B188B1C8A96589658149A2E8A943
:103AF80046A9A8B987B9A8B9A8B9A8C167B146A9FC
:103B080066A1A79967A1E580C350044104398238AA
:103B1800E5682579A679B3DD14DE14D611BD686A87
:103B2800C34083388220A2204110000820084008A2
:103B380061088210410041002000000000002000C0
:103B480041088210A210C318C318C318C210A210CB
:103B5800A210A210C3188210032103216531242961
:103B6800919C5CF75CEF1BE7929445316110E32070
:103B780004210321E318E320E31861080000200072
:103B880041080000200020004008E31844290000F4
:103B98002000200020006108C3108208620082080B
:103BA800A208A20882088308420062004621662112
:103BB8000511C4106200210001000108000801106D
:103BC8008320053145694569457145716671867976
:103BD8008681669166A1A8A9C8A9A799C799C8A905
:103BE800A7B167B9A8A9A7A1258908A2E799C7A17C
:103BF800C8A946A146A146A166A9A8B9A8B967A9B6
:103C080046A16699C789A3686250E338A220212893
:103C1800C4600579288A4EBC6A930672E248034953
:103C2800E34062306218411020084108000020007B
:103C380082082000210000000000200041006108E7
:103C480082108210C318C318C318A3108210A210C0
:103C5800A210C318E318C3180321C21803210321B3
:103C68004429B29CD39C284A81108210A21061106A
:103C7800821082106108A210042104196108000052
:103C88002000200061082000610840002000410059
:103C9800200040008208E310A2084100C3108208F7
:103CA8006200A20882086100410082004519C30829
:103CB800210021000000410042082108000883205B
:103CC800C430A430456945694571457165796579A0
:103CD8008681879987A987A9E8B18699C799E8A9AC
:103CE80087B147B149A2E480C8A1C8A9C8A9A7A1BA
:103CF800C7A1A699A6A186A187A166A1C8A987A1DF
:103D080067A146994459E358C350C238A6410018E0
:103D180083506789A368C258A150C258246145518D
:103D280041202118000800080000000000000000E1
:103D3800410062008208610041002100200021004A
:103D48006208A310E318E318C318A210A210C3183E
:103D5800E318E318E318E318C318E318E31803217A
:103D6800E320E31861086210621041082000000097
:103D780020006108C21024212521C3104100000041
:103D88000000000041004100400000000000200049
:103D9800610082088208A208A208A208A208820874
:103DA80082088208A100A100E2084411E300410052
:103DB8006100E300451166198621872946292629CD
:103DC8000529E52845694569457146796679668119
:103DD8008689879987A9A8B1E8B18699E8A1E8A951
:103DE80087A9A8B90782A681C8A1C8B1A8B187A91F
:103DF800A7A1A7A186A186A187A18691C791299A83
:103E0800C899E580E2402349C24081302441E4401A
:103E180022402671E470A360C3684571A67104410D
:103E2800201020080008000000000000000000002A
:103E38002100410082008200610041000000000072
:103E48004108A318E318C318A310C310C318C31854
:103E5800E318E318E318E318E318E318E318C318A2
:103E6800A21061086108410820000000000020003D
:103E78006208A31024210419C31041000000200087
:103E880020002100200040004000200020004100C8
:103E98008100820881008208820882088208A208BC
:103EA800A208A208E208C208E20803092409E719DF
:103EB800CB3A0C3B2D434E4B6E4B4E532E532E5349
:103EC8000D53ED52256925714579667966816689B4
:103ED8008691A7A1A7A9E8B1A7A96699E8A9E8A921
:103EE80087A9E9B985692892C8A1C8B167B187B11E
:103EF80066A9A7B187A987A987A986996689088A23
:103F0800E781C358C34844514449C340C44825596C
:103F180001304561056925718779E879E869822862
:103F280000002000000000002000210021002100E6
:103F380020004100820062008208820841002000BF
:103F48006108C3180421C318A210C318E318C318C2
:103F5800E318031904210419E318C318C210A210A6
:103F68006108410820000000000000000000200057
:103F780041006108A21082084100200020002100B1
:103F88002100210041004100410041004100610041
:103F98006100610081006200620082008200820884
:103FA800A308C308E310C310C308C30004012922EF
:103FB8006F4B8F4B4E436F436F436F434F434F439A
:103FC8004F434F4325712571457946816689668936
:103FD8008699A7A1A7A909B287A187A1E8A9C8A11D
:103FE800E8A9C8A1458129A2E8A1C8B167B167B904
:103FF80026B167B967B167A967A188A16789C77939
:1040080045598230635804592449A340C46026693D
:10401800A3402441E869097AA7694651C3300008DA
:1040280000006000000000004100610861004100DC
:1040380041004100620061006208A210A3108210D2
:10404800A210E31865290421C318C310C318E31884
:10405800E41804190421E318C210821061086108E9
:1040680041002000000000000000000000000000E7
:104078000000000000002000210041004100410034
:104088002100200061006100610061006200820877
:104098008208620082088208820082008208A208E0
:1040A800A308C30883108210C310C410C400871962
:1040B8002E436F4B6F4370439043703B703B703B94
:1040C800904390432571257145796681668966918B
:1040D8008799A7A1C8A909B26699A7A9C8A9C8A11B
:1040E80029AA669167A9C8A9E8A9A7A967A967B96C
:1040F80046B967B167A987A16799A8998789667141
:10410800A23820180360A8714551824005692569C5
:104118004551C330822082280010000800080000A2
:1041280040006000200041006108620862086208DF
:1041380062086208620861006208A310E318E318C5
:1041480004212421662945290419C318C318E31832
:10415800E418E318A21082106208610841082000E0
:104168000000000000000000000000000000000047
:104178002000410021004100410041004100410070
:1041880021002100410041004100610062008208D5
:1041980082088208820882088208A208A208A20867
:1041A800C308C308A3188310C310C410A408261199
:1041B8000E4390537043704391439043903B913B1F
:1041C800913B903B25714579658166896691669931
:1041D80087A1A7A1E8A9E8A16699C8A9A8A9C8A123
:1041E80029A26681C9B988B1C8B1A7A987A987B129
:1041F80067B166A987A1E8A1C7914679E560A34898
:10420800212800184350097A2449E34086698671B9
:104218004561C338000800000000010000080008DC
:1042280000004000410061006108820882086208BD
:1042380082086208620862088208A210C318E3189C
:1042480024214429042124210421C318A310C318BC
:10425800C318821082106108410820000000000085
:104268000000000000000000000000000000000046
:1042780021006108620861084100410041006208AC
:10428800410021002100410041004100610062001D
:104298008208620082088208A208A208A308C3084C
:1042A800C308C308C318C310C310C408C408261120
:1042B800ED424F4B4F437043704370439043903BE4
:1042C800903B703B2579457966818689669966A118
:1042D80087A1C7A108AAA7998699A8A9A8A9E9A901
:1042E800C791E789C9B1C8B1A7A987A9A7A966A92C
:1042F80087A986A1A799C7898671E34861302020DC
:104308002120212083382549C23002398451C671C1
:104318004571C4502010200020000100000800084A
:10432800000060006100610061086108610882089E
:10433800820882108208820862086108A210E318C5
:1043480004210321C318E4180421E318A3108210E0
:1043580062084108610841080000000000000000F0
:1043680000002000000000002000200020002000A5
:10437800210041006108610861084100610082086C
:104388006208210021004100620041004100410013
:104398004100410062008208A208A208A308A308FD
:1043A800A308C308C208C308E308E308250946119F
:1043B8000D436F4B4F436F4370439043904390437B
:1043C8008F3B6F3B2579457966818691869987A1D0
:1043D800A7A9E8A929AA8691A7A1A7A9A8A929AA4E
:1043E80066814992A8A129B267A967A9A7A966A168
:1043F800A7A18699A691E468C248A1288018411807
:1044080062280128A3280431275AA441802003598F
:104418004679056141184000610001000010001054
:1044280000002000410061008100610861088208E5
:10443800A210A2108210821041086108C31824211A
:104448000321A210C318E31804210421C318821001
:1044580041084108000000000000000000000000C2
:10446800000000000000000020002000210041089A
:10447800610882088208A21082086100410062086F
:104488006208410021004100620062006100610091
:104498004100410062008208A208A208A208A208FE
:1044A800A208A208E208E208E20003012409E400E5
:1044B800CB328F4B6F436F438F4390438F438F4370
:1044C8008F436F3B45796589669146918799A7998E
:1044D800C8A1E8A9C8A967A1C8A9C899299A499AE9
:1044E800A79129A227A2E6A986A966A987A988A1D2
:1044F80088896779A450E440043181106008611804
:1045080000204238097A8EA3E65101198331E34825
:1045180026792669A328000000000008000820006A
:104528002000000062008208820882088208821047
:104538008108610881104108A210C3180419A3104A
:10454800C310E4100321032124210419C3102100FE
:104558004100000000000000000000000000000012
:10456800000020002100210021002100410041001D
:1045780062086208620862088208820841008208AC
:104588008208410020002100210041004100410033
:104598004100610082088208820882088208820835
:1045A800A208A308A208C208C308C300E3002401A4
:1045B8006A2A8F4B4F4350437043704B504B504BBC
:1045C800504B304B6581668966996699A799A7997A
:1045D800C8A109B2A7A187A1C8A9A799089AA789BC
:1045E800C89909AAE7B1A7A986A987A1A799667951
:1045F800E458624083384230822861184110201004
:104608000018455110AC8A7AA230C539C85A855964
:1046180005716779E4380000000000080008000010
:10462800000000006200A308C310A21082088210D4
:1046380082108110A210A210C318C3108210C318D0
:10464800041904190321C2184421E3184100000089
:104658000000000000000000000000000000200032
:1046680020002000210021002100410041006108B4
:104678006208620882088208A3108208610062004A
:104688008208410021002100210041004100410031
:1046980041004100410061006200820882088208EE
:1046A8008208A208A210A308C308C308E3080401EB
:1046B80049228F4B4F434F437043704370435043DD
:1046C800504350438681469146998699A799A79960
:1046D800C8A909B26699A799C7A1C8A129A28689BC
:1046E80009AA88A9A7A9A8A9A8A167892569C3486B
:1046F800A23082204118001800180018C2306549FD
:10470800E3408A7ACF8B04416128A9620963234177
:104718002571067105510008000000000000000026
:10472800000000002100A210E418C318A210A21073
:10473800A210A2106108E318A2108210A210A21001
:104748000421252144290321A21020000000010092
:104758000000000000000000000000000000200031
:104768002000210041004100410841086108620819
:104778006208620882088208A310A30882086200FF
:104788006200410041002100210041004100410038
:1047980041004100410061006200820882088208ED
:1047A80082088208A210A208C308C308E308E4002C
:1047B800081A6E434E436F3B6F3B703B703B6F3B39
:1047C8006F3B6F3B8681669146A18699A791C799F1
:1047D800C8B1E8B14591C799E8A1E8A1A791658159
:1047E80009AAE9B9E9A16891E578A3586240612866
:1047F8004010400820002008001020204551497230
:104808008661EB92508481200341C6496B7B444901
:1048180025718889466921180000200000000000E1
:104828000000000000008210E318E318C310A31072
:10483800A21082106108C318610882100321C318EE
:104848000421C32081180321200800000000000073
:1048580000002100000000000000200020002000CF
:1048680041004100410041084108410862086208CE
:104878006208610882088208A310C310A2086200B7
:104888004100410041002100210041004100410058
:1048980041004100410061006200820882088208EC
:1048A80082088208A3108208A308C308E308C3008B
:1048B800C7194E434E436F3B6F3B8F3B6F3B6F3B7C
:1048C8008E3B6E3B8689879987A18699A79108A216
:1048D80008B2A7A96699C7A1A79929A2A681088A9B
:1048E800C89988A16771E55863482238212820189B
:1048F8000008200040004010402020308248C35863
:104908004561AEB3D284A2182439275AC96A403007
:10491800C889058167718228000020000000000016
:104928000000000041086110A318E318C3188210A2
:1049380082088208A2106208A210C218C3200429A3
:10494800C220E3284852032900000000200000008C
:1049580000002100000000002000200020002100AD
:1049680041004100410041084108610861086108AF
:104978006108610882088208A310C310C310820866
:104988004100410021002100210021004100410097
:104998004100410041004100610061006200620085
:1049A80082088208A310A208A308C308C308C3008A
:1049B80066110D434E436E3B6F3B6F3B6E3B6E3350
:1049C8006E336E3386998799A7998699A79928AAED
:1049D80008AA46A146A987A9A799499AC779498AE1
:1049E8002571E468843863302220211800100008FB
:1049F800000840104018402882484579E8910892FC
:104A0800CA92EEAB8519C210E320685A23490359AC
:104A1800E8916789A779E3382000000000000008C2
:104A28000000400082188210A210C318C318A310F7
:104A3800A208A310A310A210E318E320A218A22032
:104A480020100B6B13B5C3280008000000002100DC
:104A5800210020002000200020002100210021004A
:104A68004100410041004108410041004100610806
:104A78006108610062088208A208A310C310A20896
:104A880041004100210021002100210021002100D6
:104A9800410041004100410061006100620082085C
:104AA8008208A208A310A208A308C308C308C30861
:104AB8002511EC3A4E434E434E3B4E3B4E3B4E3B4C
:104AC8004D3B2D3B66A18691A691A699A7A108AA60
:104AD80008A2059147B188B1C89186690451245943
:104AE800C348E340832021100000000000080010A4
:104AF800201861302451A781C8A1C9B188A9668945
:104B08000B9B2A830311C208842184394030ABAA45
:104B180067996791C7790339000000000000000811
:104B28000000A100A218A218C318E318E418E4189A
:104B3800E310C310A208E318C318C318A118201063
:104B4800443933B5D2AC2018000800080000000032
:104B58000000410020002000410041002100210008
:104B6800210021004100410041004100410061084D
:104B780062086208620882088208A208C310A308B3
:104B88006100410021002100410021002100210095
:104B9800210041004100610061006200620082085A
:104BA800A208A308A208A208A208A208A308C3088A
:104BB800E4088B3A2E4B2E432E432E432E432E438E
:104BC8002E430D4366A98691C691C7A1A7A908AA35
:104BD800089A258988B147A94671A2300339A338B4
:104BE8008228200821002000200041102020413088
:104BF800E4588679C789C8A147A947B947B16691DA
:104C08006DAB8872C318E208A1000008287A6AB25E
:104C180087A18791C77103390000000000080008C8
:104C28002000E308A218C218E318E318E418E410F7
:104C3800E310A308C310E318C218C218601820189C
:104C48002F94B5CD71A4A2280008000041082100C6
:104C580021002000200020004100410041002100E7
:104C6800210021004100410041004100410061084C
:104C7800620862086208A31082088208E310C31061
:104C880062082100210041004100210020000000AD
:104C98002100410041006100610061006200620082
:104CA80082088208A208C208A208A208A208C308AB
:104CB800E4086B3A0E4B0E430E430E432E432E432D
:104CC8000E430E4366A98699C79987A1A8B108AA79
:104CD800A6896689A8A106816238A118A218211898
:104CE800211020006000400020104130A458468167
:104CF800A899C8A1A79987A187B147B147B1469993
:104D0800EBAA27826110A1082000C1288A92A8A1D5
:104D1800A8B18791E87981282008000000080008D8
:104D28006108E2088110C218E3180419E310A30807
:104D3800A208A3080411A210C21020084010AD83D5
:104D480053C533BD91ACE3300008000820002000B3
:104D58004100200041004000410041004100410065
:104D680041004108410041004100610861086208B2
:104D78006208620882088208A2088208A310C31089
:104D8800820841002100210021002100210021008A
:104D980021002100410041006100610061006200C2
:104DA80082088208A208A108C2088208A308A308EA
:104DB800E4082A322E4B0E3B4F43EE322F3B2F4353
:104DC8000E430E4366A1A6A18699C8B1C8B9E9A940
:104DD8008681C881667963482018600881080008C0
:104DE800000842104018A128E34825718791A8A916
:104DF80087A966A187A167A187B167B167B146A1F5
:104E080029A245716118A2180008A5594992669906
:104E1800A8A98799E8796120200000000008000807
:104E28006208E308A210C218E318E318C310A20826
:104E38008200820061008108200044312F9C74C5E3
:104E480032BD12BD309CA2280008000821002000B5
:104E58004100200041004100410041004100410063
:104E6800410041004100410041004100410061080A
:104E780061006208620882088208A208C310C31091
:104E8800A208410021002100210021002100210069
:104E980021002100410041006100610062006200C0
:104EA80082088208C208A108C2088208A308A308C9
:104EB800E408292A2E430E3B4F3B0E332F3B4F3B32
:104EC8000E3B0E3B8699A6A166A9A8B909BAC8A146
:104ED8008781E879C340001020088108000020106D
:104EE8004228633882584571C891E8A1A8A967A9E2
:104EF80087A9A7A9A7A966A966B126B147B167A1DD
:104F0800C7994579001000180028A779C7896689CC
:104F1800C8A9A899C7792018000000000008211026
:104F28008210E308C218C218C310C310C20882084E
:104F3800820082088208810861108D7BD6CD53C516
:104F4800D1BCF1BCCE8B201800080008210020003D
:104F58004100210041004100410041004100410061
:104F68004100410041004100410041004100410031
:104F7800410061006208820882088208A310C310F9
:104F8800A310620821002100210021002100210036
:104F980021002100210041004100610062006200FF
:104FA80082088208C208A208A2088208A208A308E8
:104FB800E400E8216E430D2B2E2B2E2B2E330E33BF
:104FC8000D330E33A69986A167B988B92ABAA79175
:104FD800A779455120102000400820086118C330E7
:104FE800C450277987A187A187A987A966A987A916
:104FF800A7A9A6A986A986A967B126A926A987A9C6
:10500800A799A791E338414005798689C789C7914F
:10501800C8A188998771001000002000000842107C
:10502800A210C208E318E318C310A2108208610096
:1050380061006108610881102010EE8B53C554CDC2
:10504800F2C4D1BC6D7B00080008000020002100DC
:105058004100410041004100410041004100410040
:105068004100410041004100410041004100410030
:10507800410061006208820882088208A310C310F8
:10508800A3108208410041002100210021002100D5
:1050980021002100210041004100610061006200FF
:1050A80082088208A208A208A2088208A308A20807
:1050B800C400A7110C332D2B4E332D2B2D2B2E3343
:1050C8000D3BAC2AC69166A188B9A9B90AAA8781FD
:1050D800666941200000400040186130A3406661C5
:1050E800099288A1A7B187B146B126B146B166B188
:1050F80086A986A166A186A1A7A987A966A187A175
:10510800469967A107726681E9A98799289AE7995C
:10511800A8A1889186690008000020002108621073
:10512800A310810061086108610841004100410045
:1051380061086108A2184010E22813BDF2BCF2C44D
:10514800F2CCF2CC0B6B000000080000200021001C
:105158004100210041004100400041004100410060
:10516800410041004100410041004100410041002F
:105178006100620882088208820882088208A310F7
:10518800A310A3104100410041002100410021006B
:10519800210021002100410041004100610062001E
:1051A800820882088200820882088208A310A20866
:1051B800C30065090C3BEC2A0C2B4D33EC32AC32A6
:1051C8008F5BD484C79187A1C9B92ABAC89187715E
:1051D800E44800080000A1186130E458C789E89144
:1051E800C7A1A8B986A187A987B967B946B146B149
:1051F80066A987A986A186A1A6A1A799A79987A12B
:1052080046A126A1C789A79946A16699089AC79970
:10521800A8A1C89145512000200021082210A31000
:10522800C310A20862086208821082108210A210BD
:10523800A218A21861184018C64974CD33CD91BC84
:10524800D1CCB1C469520000000000002000210048
:10525800410021002100410040004100410041007F
:10526800410041004100410041004100410041002E
:105278006100620882088208820882088208A210F7
:10528800A310A3104100410041002100210041006A
:10529800210021002100410041004100410061003E
:1052A800820882088200820882088208A210A30865
:1052B800C3082509292AEC3ACB32CB3A8F5B569D95
:1052C800BBD63DEFC799C8A9EAB92BB26781055982
:1052D80041200008611882300461A891C8A1C7A9BB
:1052E800A7B145B1C7A1A6A966A966B187B187A923
:1052F80086A946A967B146A966A986A1A7998699EC
:10530800A7A167A9679987A905996691E79987A1D0
:1053180067A1A889E3302000200001102210A31003
:10532800E310C208E418E420E42004210421042145
:10533800C32082182331EE9391B433CD33CDCEAB55
:10534800EEB370C4C6390000000000000000210060
:1053580041002100210020002000410041004100BF
:10536800410041004100410041004100410041002D
:105378006100620882088208A208820882088208FE
:1053880082088208620841002100210021004100B2
:10539800210021002100410041004100410061003D
:1053A80062008208A2008208820862088208A308B4
:1053B800C310E408082AAB3A0C4BD38CBBDEFCEED6
:1053C80093AC2A62E899C8A10AB2C9A147796238A0
:1053D80000084010E330E450C889C8A966A966B13E
:1053E80065B185B1A6A1A6A186A986A1A6A1A699FF
:1053F80086A166A926B106B147B987A987A1669192
:10540800A799869946A946A987A96591E799A8A960
:1054180047A1A781A22020002100001001106208E6
:10542800A2008208210841086208A310E420042190
:10543800C2206118CA6A34C513C533CDF3CC4C9B5E
:105448006CA3CEB324290000000000000000210056
:1054580041002100210020002000400040004100C0
:10546800410040004100410041004100410041002D
:105478006100620862088208A310A21082088208EC
:1054880082088208620841002100210021004100B1
:10549800210021002100410041004100410061003C
:1054A80062008208A308A3086200620882088210CA
:1054B800C310C31066219384BBCE3DE756BDAC72C2
:1054C80005490551C7B1E8A929AAC8812551001085
:1054D8000010E34083588799A8B166B1A7B1C7B156
:1054E80066A967A987A987A987A966A966A987A9B7
:1054F80067A967A987A967A167A166A166A166A12F
:1055080067A167A166A186A186A1259988A9A8A9EE
:10551800C991865920084000210001080008200090
:1055280061008108C100A2006208821800082108F1
:10553800811800104D93F3DC14ED30CC0EBC2B9B7E
:105548006BA3ACABC22000000000000021002100CA
:1055580001004200210021002100210041004100FA
:1055680041004100610041004100410041006100EB
:105578006100610862088208A31082086208820834
:1055880082086208820862082100410021000000A8
:10559800410021002100410041004100410062001A
:1055A8006200610082086210631063088308831038
:1055B800A308C20807323CFFF4E4CCBA6691E47849
:1055C800C3786699E8B1E8A929A26671C3400010BA
:1055D8008228E4486679A8A1A7B166A9A7B1A7B1AE
:1055E80066A987B187A987A987A966A966A987A98E
:1055F80067A967A987A967A167A166A166A166A12E
:1056080067A167A166A186A186A1269967A9A8A115
:10561800A889254920002000000001080008200072
:1056280040004000A100E2088208410862104110D1
:105638000008A22810AC14D571CC6CA32FB4CDAB44
:105648004B9BC99265390008000800000000010062
:1056580021004200210021002100210041004100D9
:10566800410041004100410041004100410041002A
:105678004100610062088208A20882086208620884
:1056880082086208820862082100410021000000A7
:10569800410021002100410041004100410061001A
:1056A8006200820082006208620862086308A30838
:1056B800C310E3100319EB82A8890691E59066915F
:1056C800E8A1E8A9E8B909B2299A056100280020EB
:1056D80004490561099AC8A987A986A9C7A9A7A9DC
:1056E80066A967B187A987A987A966A966A987A9AD
:1056F80067A967A967A167A166A166A166A166A156
:1057080066A166A186A186998699469967A1A8A1EE
:105718008779E33840002000000021082108210093
:105728002000200040004000C208C3106108410862
:1057380021104D8BB6DDB6DD6C93A5594FB42FB44F
:105748008DABCA9A854100080008000000000100DE
:1057580021002100210021002100210041004100F9
:105768004100410041004100410041004100410029
:1057780041004100610082088208820862086208CC
:105788006208610062088210410021004100210086
:105798002100410021004100410041004100410039
:1057A8006100820882006208620862086208A20832
:1057B800C310031161100451C9A1A9B989B9E9B18C
:1057C80009AAA8A9C8B909B2C889E4500018A33819
:1057D8002561878109AA87A986A1A6A9C7A9A7A91A
:1057E80067A967B187A987A966A966A966A987A9CC
:1057F80067A966A167A167A166A166A166A166A15E
:1058080066A166A166996699869946916799A8994D
:105818006669A228A1086100200021004108410012
:105828004000600000000000400040004100000807
:10583800AB6AF8DD59E6BAEE643902310EA4B2C497
:10584800AEB3AB92C649000800080008000021006A
:105858002100210041002100410041004100410098
:105868004100410041004100410041004100410028
:10587800410061004100620882086208620862080B
:1058880061004100620882084100210041002100B6
:105898002000410041002100410041004100410039
:1058A80041008208A2008208820882088208A208B1
:1058B800C3080311611825612BC229C189C1A9B187
:1058C80046910589C9B9E9A9667182380018455910
:1058D8002571E9A1A8A966A986A1C7A9C6A1A7A9F2
:1058E80087B167B187A987A966A966A966A967A9C3
:1058F80067A966A166A166A166A166A166A166A15F
:1059080066A166A186996691669146914791A8918C
:1059180005598120E2108200210001002100410088
:1059280061006100811060008100200020088A6207
:1059380035BD59DEFBE64B6B000823396D93B2C4C5
:10594800CFAB4D9B896A20180008000800000000B2
:105958004100410041004100410041004100410037
:105968004100410041004100410041004100410027
:1059780041006100410062088208820862086100F3
:1059880041004100410082084100000041004100FF
:105998000000410061004100210041004100410038
:1059A80041006200A100820082088208A208A200C9
:1059B800C3080311411846690BC229C1AAC9A8A185
:1059C800A47083600ABAC8914561002061304561BE
:1059D8004681E9B167B166A9A6A9C6A1A6A187A90A
:1059E80087B167B187A966A966A966A966A967A9E3
:1059F80067A166A166A166A166A186A166A166A146
:105A080066A166A18699669186914691479187819C
:105A1800C3488118E210C208820021002100410019
:105A2800410061000000A20861082008E428319CB8
:105A38007AE6BADECE732000400800186E9BB7E500
:105A480055D5EFA32C7B612000080008000000005A
:105A58002100410041004100410041004100410056
:105A68004100410041004100410041004100410026
:105A78004100410041006208820882086208410032
:105A880041004100410062086208200021004100F5
:105A9800000021006208410041004100410041002E
:105AA80061006100810081008208A208C308C20861
:105AB800E3080311821826610BBAAAC1CAB1E570BE
:105AC800414040382BAA8779E448001824494569A1
