:020000040800F2
:100000000050002021020008270200082B020008EF
:100010009D020008A1020008E9020008000000009B
:100020000000000000000000000000003103000894
:10003000350300080000000039030008951D000882
:100040004D0300084D0300084D0300084D03000850
:100050004D0300084D030008B1110008C11100084C
:100060004D0300084D0300084D0300084D03000830
:100070004D0300084D0300084D0300084D03000820
:100080004D0300084D0300084D0300084D03000810
:100090004D0300084D0300084D0300084D03000800
:1000A0004D0300084D0300084D0300084D030008F0
:1000B0004D0300084D0300084D0300084D030008E0
:1000C0004D0300084D0300084D0300084D030008D0
:1000D0004D0300084D0300084D0300084D030008C0
:1000E0004D0300084D0300084D0300080000000008
:1000F0000000000000000000000000000000000000
:1001000000000000000000005FF808F100B583B0B7
:1001100000F0AAF9304B314A1360314A1360314B79
:10012000314A32498B4204D21168196004330432D7
:10013000F7E72A4B1A682E4B9A4200D0FEE7284B6D
:100140001A682C4B9A42F9D1234B2B4A13602B4A45
:1001500013602B4B02E000221A600433294A9342B9
:10016000F9D3254B1B6813B9244B1B6803B1FEE779
:1001700000F086F9694601A800F022F9224C234BD1
:10018000E41AA4100025AC4214DC214C214BE41AE3
:10019000A4100025AC4213DC0099019800F0D6FAB7
:1001A00005461D4C1D4BE41AA410002C0EDC2846FD
:1001B00000F0E2F8154B53F8253098470135E2E797
:1001C000144B53F8253098470135E3E7013C134BB6
:1001D00053F824309847E8E7BABADECA0000002096
:1001E0009800002000000020A02F00089C000020A4
:1001F00078563412325476989C0000201802002061
:100200009C0000201C0200207803000878030008EE
:1002100078030008780300087803000878030008D2
:1002200008B5FFF773FF00BEFEE71EF0040F0CBF1A
:10023000EFF30880EFF309807146414A10472DE93A
:10024000F04182B004468846124B5E6B9F6B9D6AFC
:100250001B6B13F0020F03D00E4BDB6A002B0CDB81
:100260000D4800F0B5F8CDF800803B4632462946EF
:10027000204600F009F900BEFEE74BF6AB6100F046
:100280007DF90028ECD0034B4FF00042DA6202B057
:10029000BDE8F08100ED00E0202F000800BEFEE781
:1002A0001EF0040F0CBFEFF30880EFF309807146D6
:1002B000244A10472DE9F04182B004468846084B95
:1002C0005E6B9F6B9D6A074800F082F8CDF8008056
:1002D0003B4632462946204600F0D6F800BEFEE7EF
:1002E00000ED00E0302F00081EF0040F0CBFEFF30C
:1002F0000880EFF309807146134A10472DE9F04159
:1003000082B004468846084B5E6B9F6B9D6A074827
:1003100000F05EF8CDF800803B4632462946204684
:1003200000F0B2F800BEFEE700ED00E03C2F000850
:1003300000BEFEE700BEFEE700BEFEE7704700001D
:100340003F020008B5020008FD02000800BEFEE7FB
:10035000A02F0008000000209C000020A02F000813
:1003600000000000000000009C0000201C02002093
:08037000000000000000000085
:10037800FEE7000008B503460C4A12685AB10B4A5A
:100388001068033323F003030344094A934206D851
:10039800064A136008BD054A06491160EFE702F0F6
:1003A800FDF80C2303604FF0FF30F3E7A0000020B6
:1003B800004C00201C02002001230360014B0B604D
:1003C800704700BF040000200FB400B583B004AB31
:1003D80053F8042B01938021064802F011F90028F4
:1003E80003DD0146034800F037F803B05DF804EB7D
:1003F80004B07047A80000202DE9F04385B00446FA
:100408000F4643560BB10E461EE0042528462146EA
:10041800ABBE0446384605B0BDE8F08314F9011BAD
:1004280004AA1A4402F8101C0133AB42F6D304AAFA
:100438001344002203F8102C4FF00408E946404604
:100448004946ABBE8046761B002EE3D03546102EBB
:1004580028BF10250023E8E708B5FFF7CDFF08BD42
:1004680008B500F0FDF8024A024B9A6008BD00BFCB
:100478000000000800ED00E008B500F019F908BD1B
:10048800F8B504460D4617461E462748FFF79CFF59
:1004980021682648FFF798FF61682548FFF794FF11
:1004A800A1682448FFF790FFE1682348FFF78CFF15
:1004B80021692248FFF788FF61692148FFF784FF17
:1004C800A1692048FFF780FFE1691F48FFF77CFF1B
:1004D8001E48FFF779FF29461D48FFF775FF1D4C99
:1004E800E16A1D48FFF770FF216B1C48FFF76CFF9E
:1004F800E16B1B48FFF768FF15F0800F0AD115F470
:10050800004F0CD11748FFF75FFF06991648FFF711
:100518005BFFF8BD39461548FFF756FFEFE7314650
:100528001348FFF751FFEDE7042E0008142E0008CA
:10053800242E0008342E0008442E0008542E0008EB
:10054800642E0008742E0008842E0008942E0008DB
:10055800A02E000800ED00E0B02E0008C02E000814
:10056800D02E0008002F0008082F0008E02E0008F1
:10057800F02E000883691A888A4201D0002070474B
:100588000268033A012A03D80233836101207047C5
:100598000020704782B00023019300932C4A13680F
:1005A80043F4803313602A4B1B6803F40033009331
:1005B800019B01330193009B1BB9019BB3F5A06F0D
:1005C800F1D1234B1B6813F4003F06D0012300939D
:1005D800009B012B04D002B0704700230093F7E77B
:1005E8001C4B1A6842F010021A601A6822F00302C3
:1005F8001A601A6842F002021A60A3F580535A681A
:100608005A605A685A605A6842F480625A605A6856
:1006180022F47C125A605A6842F4E8125A601A6846
:1006280042F080721A600A4B1B6813F0007FFAD000
:10063800074B5A6822F003025A605A6842F00202D5
:100648005A60034B5B6803F00C03082BF9D1C2E72F
:10065800001002400020024008B5FFF79BFF08BDCC
:1006680008B5104B1A6842F001021A6059680E4A20
:100678000A405A601A6822F0847222F480321A60A2
:100688001A6822F480221A605A6822F4FE025A601C
:100698004FF41F029A60FFF7DFFF044B4FF0006230
:1006A8009A6008BD001002400000FFF800ED00E06D
:1006B8001F4B5B6803F00C03042B15D0082B17D0D5
:1006C8001BB11C4B1C4A1A6002E01A4B1A4A1A60EA
:1006D800174B5B68C3F30313184AD35CDAB21549A6
:1006E8000B68D3400B607047124B134A1A60EFE750
:1006F8000F4A53685268C3F38343023312F4803FAE
:100708000AD00B4A526812F4003F0BD00C4A02FB85
:1007180003F3084A1360DBE7094A02FB03F3054ABF
:100728001360D5E7044A02FB03F3024A1360CFE7DC
:10073800001002401C00002000127A000C0000206B
:1007480000093D0000B585B000238DF80C308DF808
:100758000D3001238DF80E300A4B93E80300019009
:10076800ADF8081003A801F037FA01A9032001F039
:1007780083FA01F091FA01F027FA01F083F901F008
:10078800A9F9FCE74C2F00080378132B00F2988096
:10079800DFE803F00A11181F262D343B4249505751
:1007A8005E656C737A81888F464A936843F00103CB
:1007B800936001207047434A936843F002039360B3
:1007C800012070473F4A936843F004039360012077
:1007D80070473C4A936843F00803936001207047D0
:1007E800384A936843F01003936001207047354AF4
:1007F800936843F02003936001207047314A93685F
:1008080043F040039360012070472E4A936843F0F9
:1008180080039360012070472A4A936843F48073E9
:10082800936001207047274A936843F400739360EC
:1008380001207047234A936843F480639360012042
:100848007047204A936843F400639360012070471F
:100858001C4A936843F48053936001207047194AF7
:10086800936843F40053936001207047154A9368D6
:1008780043F48043936001207047124A936843F41D
:1008880000439360012070470E4A936843F4803315
:100898009360012070470B4A936843F400339360D8
:1008A80001207047074A936843F48023936001202E
:1008B8007047044B9A68012060F3DF429A607047E2
:1008C80000207047000401400378132B00F2988041
:1008D800DFE803F00A11181F262D343B4249505710
:1008E8005E656C737A81888F464AD36843F001034A
:1008F800D36001207047434AD36843F00203D360B2
:10090800012070473F4AD36843F00403D3600120B5
:1009180070473C4AD36843F00803D360012070470E
:10092800384AD36843F01003D36001207047354A32
:10093800D36843F02003D36001207047314AD3685D
:1009480043F04003D360012070472E4AD36843F038
:100958008003D360012070472A4AD36843F4807328
:10096800D36001207047274AD36843F40073D360EB
:1009780001207047234AD36843F48063D360012081
:100988007047204AD36843F40063D360012070475E
:100998001C4AD36843F48053D36001207047194A36
:1009A800D36843F40053D36001207047154AD368D5
:1009B80043F48043D36001207047124AD36843F45C
:1009C8000043D360012070470E4AD36843F4803354
:1009D800D360012070470B4AD36843F40033D360D7
:1009E80001207047074AD36843F48023D36001206D
:1009F8007047044BDA68012060F3DF42DA60704721
:100A0800002070470004014010B582B00446037806
:100A180041689C4A42F823108DF80030C378012BB6
:100A280022D01BB1022B24D0002003E06846FFF738
:100A3800ABFE01202378132B00F20E83DFE813F0BE
:100A480021004E007A00A600D200FE0033015F01AB
:100A58008B01B701E3010F023B026E029A02C60244
:100A6800F302F902FF0205036846FFF72DFF012094
:100A7800E0E76846FFF788FE6846FFF725FF012094
:100A8800D8E76278804B53F82230A1781A6861F36E
:100A980003021A60A378082B0ED0182B15D07B4AB6
:100AA800136843F0010313606178794B9A6861F326
:100AB80003029A6002B010BD6278734B53F822307B
:100AC800DA686FF30002DA60E9E762786E4B53F890
:100AD8002220D36843F00103D360E0E762786A4BD1
:100AE80053F82230A1781A6861F307121A60A378C4
:100AF800082B0DD0182B14D0644A136843F0020356
:100B080013606178624B9A6861F307129A60D1E7C3
:100B180062785D4B53F82230DA686FF34102DA608D
:100B2800EAE76278584B53F82220D36843F002036F
:100B3800D360E1E76278544B53F82230A1781A6801
:100B480061F30B221A60A378082B0DD0182B14D050
:100B58004E4A136843F00403136061784C4B9A685B
:100B680061F30B229A60A5E76278474B53F822306D
:100B7800DA686FF38202DA60EAE76278424B53F888
:100B88002220D36843F00403D360E1E762783E4B48
:100B980053F82230A1781A6861F30F321A60A378EB
:100BA800082B0DD0182B14D0384A136843F00803CB
:100BB80013606178364B9A6861F31F329A6079E75F
:100BC8006278314B53F82230DA686FF3C302DA6087
:100BD800EAE762782C4B53F82220D36843F00803E5
:100BE800D360E1E76278284B53F82230A1781A687D
:100BF80061F313421A60A378082B0DD0182B14D078
:100C0800224A136843F0100313606178204BDA68B6
:100C180061F30302DA604DE762781B4B53F8223028
:100C2800DA686FF30412DA60EAE76278164B53F871
:100C38002220D36843F01003D360E1E76278124BB7
:100C480053F82230A1781A6861F317521A60A37812
:100C5800082B0DD0182B1DD00C4A136843F0200325
:100C6800136061780A4BDA6861F30712DA6021E7EA
:100C78006278054B53F82230DA686FF34512DA6070
:100C8800EAE700BF28010020542F000800040140B3
:100C98000000014062789E4B53F82220D36843F04D
:100CA8002003D360D8E76278994B53F82230A178B3
:100CB8001A6861F31B621A60A378082B0DD0182BF1
:100CC80014D0944A136843F0400313606178924B40
:100CD800DA6861F30B22DA60ECE662788C4B53F841
:100CE8002230DA686FF38612DA60EAE76278884BB6
:100CF80053F82220D36843F04003D360E1E76278D9
:100D0800834B53F82230A1781A6861F31F721A6076
:100D1800A378082B0DD0182B14D07E4A136843F003
:100D28008003136061787C4BDA6861F31F32DA6004
:100D3800C0E66278764B53F82230DA686FF3C71250
:100D4800DA60EAE76278724B53F82220D36843F0FE
:100D58008003D360E1E762786D4B53F82230A178C5
:100D68005A6861F303025A60A378082B0DD0182B38
:100D780014D0684A136843F4807313606178664B33
:100D88001A6961F303021A6194E66278604B53F8BA
:100D98002230DA686FF30822DA60EAE762785C4B9F
:100DA80053F82220D36843F48073D360E1E7627874
:100DB800574B53F82230A1785A6861F307125A60EA
:100DC800A378082B0DD0182B14D0524A136843F47B
:100DD800007313606178504B1A6961F307121A6146
:100DE80068E662784A4B53F82230DA686FF3492292
:100DF800DA60EAE76278464B53F82220D36843F476
:100E08000073D360E1E76278414B53F82230A17850
:100E18005A6861F30B225A60A378082B0DD0182B5F
:100E280014D03C4A136843F48063136061783A4BEA
:100E38001A6961F30B221A613CE66278344B53F865
:100E48002230DA686FF38A22DA60EAE76278304B98
:100E580053F82220D36843F48063D360E1E76278D3
:100E68002B4B53F82230A1785A6861F30F325A603D
:100E7800A378082B0DD0182B14D0264A136843F4F6
:100E8800006313606178244B1A6961F31F321A6199
:100E980010E662781E4B53F82230DA686FF3CB22E3
:100EA800DA60EAE762781A4B53F82220D36843F4F1
:100EB8000063D360E1E76278154B53F82230A178DC
:100EC8005A6861F313425A60A378082B0DD0182B87
:100ED80014D0104A136843F48053136061780E4BA2
:100EE8005A6961F303025A61E4E56278084B53F8E2
:100EF8002230DA686FF30C32DA60EAE76278044B82
:100F080053F82220D36843F48053D360E1E700BF4D
:100F1800542F0008000401400000014062784F4B44
:100F280053F82230A1785A6861F317525A60A378AF
:100F3800082B0DD0182B14D0494A136843F40053DA
:100F480013606178474B5A6961F307125A61B1E53A
:100F58006278424B53F82230DA686FF34D32DA6028
:100F6800EAE762783D4B53F82220D36843F40053F4
:100F7800D360E1E76278394B53F82230A1785A6898
:100F880061F31B625A60A378082B0DD0182B14D07C
:100F9800334A136843F4804313606178314B5A69CC
:100FA80061F30B225A6185E562782C4B53F82230A5
:100FB800DA686FF38E32DA60EAE76278274B53F823
:100FC8002220D36843F48043D360E1E76278234B5F
:100FD80053F82230A1785A6861F31F725A60A378D7
:100FE800082B0DD0182B14D01D4A136843F4004366
:100FF800136061781B4B5A6961F31F325A6159E5D6
:101008006278164B53F82230DA686FF3DF32DA6011
:10101800EAE76278114B53F82230DA68012161F36C
:10102800DF32DA60E0E70E4A136843F48033136076
:1010380040E50B4A136843F4003313603AE5084A65
:10104800136843F48023136034E5054B1A680121C3
:1010580061F3DF421A602DE500202BE5542F0008CC
:1010680000040140000001400378132B00F298802F
:10107800DFE803F00A11181F262D343B4249505768
:101088005E656C737A81888F464A536943F0010321
:10109800536101207047434A536943F00203536187
:1010A800012070473F4A536943F00403536101200C
:1010B80070473C4A536943F0080353610120704765
:1010C800384A536943F01003536101207047354A89
:1010D800536943F02003536101207047314A536933
:1010E80043F040035361012070472E4A536943F08F
:1010F80080035361012070472A4A536943F480737F
:10110800536101207047274A536943F400735361C0
:1011180001207047234A536943F4806353610120D7
:101128007047204A536943F40063536101207047B4
:101138001C4A536943F48053536101207047194A8C
:10114800536943F40053536101207047154A5369AA
:1011580043F48043536101207047124A536943F4B2
:1011680000435361012070470E4A536943F48033AA
:101178005361012070470B4A536943F400335361AC
:1011880001207047074A536943F4802353610120C3
:101198007047044B5A69012060F3DF425A61704777
:1011A800002070470004014008B5024B1B689847AF
:1011B80008BD00BF2801002008B5024B5B689847AE
:1011C80008BD00BF280100200346002800F058820F
:1011D80042780F2A00F25682DFE812F0100034003D
:1011E80058007C00A000C400E8000C013001560142
:1011F8007A019E01C201E6010A022E020178A14A83
:1012080052F821208078116860F3030111609A7800
:10121800082A03D0182A0BD0012070471A78994B56
:1012280053F82230DA686FF30002DA600120704761
:101238001A78944B53F82220D36843F00103D36003
:101248000120704701788F4A52F821208078116870
:1012580060F3071111609A78082A03D0182A0BD076
:10126800012070471A78874B53F82230DA686FF3F9
:101278004102DA60012070471A78824B53F8222025
:10128800D36843F00203D3600120704701787D4A98
:1012980052F821208078116860F30B2111609A7848
:1012A800082A03D0182A0BD0012070471A78754BEA
:1012B80053F82230DA686FF38202DA60012070474F
:1012C8001A78704B53F82220D36843F00403D36094
:1012D8000120704701786B4A52F821208078116804
:1012E80060F30F3111609A78082A03D0182A0BD0BE
:1012F800012070471A78634B53F82230DA686FF38D
:10130800C302DA60012070471A785E4B53F8222036
:10131800D36843F00803D360012070470178594A25
:1013280052F821208078116860F3134111609A788F
:10133800082A03D0182A0BD0012070471A78514B7D
:1013480053F82230DA686FF30412DA60012070472C
:101358001A784C4B53F82220D36843F01003D3601B
:10136800012070470178474A52F821208078116897
:1013780060F3175111609A78082A03D0182A0BD005
:10138800012070471A783F4B53F82230DA686FF320
:101398004512DA60012070471A783A4B53F8222038
:1013A800D36843F02003D360012070470178354AA1
:1013B80052F821208078116860F31B6111609A78D7
:1013C800082A03D0182A0BD0012070471A782D4B11
:1013D80053F82230DA686FF38612DA60012070471A
:1013E8001A78284B53F82220D36843F04003D3607F
:1013F800012070470178234A52F82120807811682B
:1014080060F31F7111609A78082A03D0182A0BD04C
:10141800012070471A781B4B53F82230DA686FF3B3
:10142800C712DA60012070471A78164B53F8222049
:10143800D36843F08003D360012070470178114AD4
:1014480052F821208078516860F3030151609A783E
:10145800082A03D0182A0BD0012070471A78094BA4
:1014680053F82230DA686FF30822DA6001207047F7
:101478001A78044B53F82220D36843F48073D3605E
:1014880001207047602F000801787F4A52F8212018
:101498008078516860F3071151609A78082A03D060
:1014A800182A0BD0012070471A78774B53F822304E
:1014B800DA686FF34922DA60012070471A78724BB4
:1014C80053F82220D36843F40073D3600120704797
:1014D80001786D4A52F821208078516860F30B2119
:1014E80051609A78082A03D0182A0BD00120704737
:1014F8001A78654B53F82230DA686FF38A22DA607B
:10150800012070471A78604B53F82220D36843F4BF
:101518008063D3600120704701785B4A52F821202C
:101528008078516860F30F3151609A78082A03D0A7
:10153800182A0BD0012070471A78534B53F82230E1
:10154800DA686FF3CB22DA60012070471A784E4BC5
:1015580053F82220D36843F40063D3600120704716
:101568000178494A52F821208078516860F3134184
:1015780051609A78082A03D0182A0BD001207047A6
:101588001A78414B53F82230DA686FF30C32DA607C
:10159800012070471A783C4B53F82220D36843F453
:1015A8008053D360012070470178374A52F82120D0
:1015B8008078516860F3175151609A78082A03D0EF
:1015C800182A0BD0012070471A782F4B53F8223075
:1015D800DA686FF34D32DA60012070471A782A4BC7
:1015E80053F82220D36843F40053D3600120704796
:1015F8000178254A52F821208078516860F31B61F0
:1016080051609A78082A03D0182A0BD00120704715
:101618001A781D4B53F82230DA686FF38E32DA608D
:10162800012070471A78184B53F82220D36843F4E6
:101638008043D360012070470178134A52F8212073
:101648008078516860F31F7151609A78082A03D036
:10165800182A0BD0012070471A780B4B53F8223008
:10166800DA686FF3DF32DA60012070471A78064BC8
:1016780053F82230DA68012060F3DF32DA6070470D
:101688000020704700207047602F0008002800F0F5
:10169800AE8042780F2A00F2AC80DFE802F0081230
:1016A8001C26303A444E58626C76808A949E0278A2
:1016B800514B53F82220D36843F00103D360012033
:1016C800704702784C4B53F82220D36843F002034A
:1016D800D360012070470278474B53F82220D36823
:1016E80043F00403D360012070470278424B53F85B
:1016F8002220D36843F00803D360012070470278A2
:101708003D4B53F82220D36843F01003D3600120E7
:1017180070470278384B53F82220D36843F02003EF
:10172800D360012070470278334B53F82220D368E6
:1017380043F04003D3600120704702782E4B53F8E2
:101748002220D36843F08003D360012070470278D9
:10175800294B53F82220D36843F48073D3600120C7
:1017680070470278244B53F82220D36843F400735F
:10177800D3600120704702781F4B53F82220D368AA
:1017880043F48063D3600120704702781A4B53F802
:101798002220D36843F40063D360012070470278A5
:1017A800154B53F82220D36843F48053D3600120AB
:1017B80070470278104B53F82220D36843F4005343
:1017C800D3600120704702780B4B53F82220D3686E
:1017D80043F48043D360012070470278064B53F8E6
:1017E8002230DA68012060F3DF32DA6070470020C7
:1017F80070470020704700BF602F0008002800F0E5
:10180800AE8042780F2A00F2AC80DFE802F00812BE
:101818001C26303A444E58626C76808A949E027830
:10182800514B53F82230DA686FF30002DA60012076
:10183800704702784C4B53F82230DA686FF3410254
:10184800DA60012070470278474B53F82230DA6893
:101858006FF38202DA60012070470278424B53F836
:101868002230DA686FF3C302DA6001207047027829
:101878003D4B53F82230DA686FF30412DA60012026
:1018880070470278384B53F82230DA686FF3451204
:10189800DA60012070470278334B53F82230DA6857
:1018A8006FF38612DA600120704702782E4B53F8E6
:1018B8002230DA686FF3C712DA60012070470278C5
:1018C800294B53F82230DA686FF30822DA600120D6
:1018D80070470278244B53F82230DA686FF34922B4
:1018E800DA600120704702781F4B53F82230DA681B
:1018F8006FF38A22DA600120704702781A4B53F896
:101908002230DA686FF3CB22DA6001207047027860
:10191800154B53F82230DA686FF30C32DA60012085
:1019280070470278104B53F82230DA686FF34D3263
:10193800DA600120704702780B4B53F82230DA68DE
:101948006FF38E32DA60012070470278064B53F845
:101958002230DA686FF3DF32DA6001207047002046
:1019680070470020704700BF602F0008264B1A6898
:1019780042F20F739A4241D9234B5A6C43F2B06337
:101988009A423BD80023072B38D810B417E01E49D9
:1019980051F82210B1F5026F0DD31B4951F82210EE
:1019A80040F6CA02914206D80122824017490878B7
:1019B8001043C0B208700133DBB2072B17D81846A2
:1019C80003F11102104951F82210B1F5757FDED3E9
:1019D8000D4951F8224040F265418C42D7D8012286
:1019E8009A400A49087820EA02000870E3E70023D1
:1019F800074A1370074A137010BC70470023044A43
:101A08001370044A137070473C010020380100200D
:101A1800390100200402002010B582B00023019390
:101A2800134B1B78CBB1002101A800F085F9114CAC
:101A38002378DBB20199104A42F823100F4A01219A
:101A48004FF4FA7000F030F923780133DBB22370D9
:101A58000B48FFF709FB02B010BD084A01214FF4FB
:101A6800FA7000F021F9024B01221A70F0E700BF6A
:101A780004020020390100203C01002075190008EB
:101A88002000002010B5062000F08CF80748FEF76B
:101A9800BBFF002407E004EB440305481844FFF7A4
:101AA80093FB0134E4B2022CF5D910BD20000020CC
:101AB8002800002010B5002407E004EB4403044884
:101AC8001844FFF79BFE0134E4B2022CF5D910BD8F
:101AD8002800002010B52F4B1B78153B322B20D83F
:101AE800DFE803F04A1F1F1F1F1F1F1F1F1F1F1F95
:101AF8001F1F1F1F1F1F1F1F1F1F1F1F1F1F1F1FEE
:101B08001F1F1F1F1F1F1F1F1F1F1F1F1F1F1F36C6
:101B18001F1F402C1A202600FFF7CCFF1E48FFF796
:101B2800B5FD10BDFFF7C6FF1C48FFF7AFFDF8E78E
:101B3800FFF7C0FF1A48FFF7A9FDF2E7FFF7BAFF62
:101B4800164CE01CFFF7A2FD2046FFF79FFDE8E7D3
:101B5800FFF7B0FF114C2046FFF798FDA01DFFF7D7
:101B680095FDDEE7FFF7A6FF0C4CE01CFFF78EFDA6
:101B7800A01DFFF78BFDD4E7FFF79CFF074C20461D
:101B8800FFF784FDE01CFFF781FDA01DFFF77EFD38
:101B9800C7E700BF380100202E00002028000020E1
:101BA8002B0000201F2805D8012303FA00F0054B5D
:101BB800186070472038C0B2012303FA00F0014BC7
:101BC8005860704700E100E0014B024A1A60704714
:101BD8000CED00E00005FA050178114B1A6861F375
:101BE800D7421A6041781A6861F392421A601A68FB
:101BF80042F480321A6081785A6861F301025A60AF
:101C0800002200E01A46064B1B6813F4003F05D17A
:101C1800531C9BB241F288318A42F3D9704700BF06
:101C2800001002400378022B21D8012B0DD01BB1E4
:101C3800022B13D0012070470E494B6942780120CE
:101C480000FA02F213434B6170470A498B694278E4
:101C5800012000FA02F213438B6170470549CB69F2
:101C68004278012000FA02F21343CB61704700204A
:101C7800704700BF0010024070B505460E460120AF
:101C8800002405E006EB4400FFF7CCFF0134E4B282
:101C9800AC42F7D370BD0000024B1A686FF38202A2
:101CA8001A60704710E000E0002A37D010B51346DC
:101CB8001F4A13601F4B1A686FF300021A609A6874
:101CC8006FF317029A6019B1012911D0002005E0BD
:101CD800184B5A6860F317025A600120154B1A68AE
:101CE80042F002021A601A6842F001021A6010BD3E
:101CF8000C4600F0A7F90AA3D3E9002300F01CFA68
:101D080009A3D3E9002300F041FB00F027FC094BAD
:101D18005A6860F317025A602046DFE700207047D0
:101D2800FCA9F1D24D62503F8DEDB5A0F7C6B03E8B
:101D38000802002010E000E0024600B319B10129B2
:101D48000CD0002070470F494B68C3F3170389680C
:101D5800C1F317015B1A0360012070470948436803
:101D6800C3F317038068C0F317001B1A064880FBEB
:101D780003C0DB17C3EB60131360084670470020ED
:101D8800704700BF10E000E01F85EB5108B50A4B13
:101D98001B689847094B1A686FF341021A609A68E2
:101DA8006FF317029A605A686FF317025A601A683D
:101DB8006FF300021A6008BD0802002010E000E07E
:101DC80081F0004102E000BF83F0004330B54FEAE4
:101DD80041044FEA430594EA050F08BF90EA020F51
:101DE8001FBF54EA000C55EA020C7FEA645C7FEAE4
:101DF800655C00F0E2804FEA5454D4EB5555B8BF07
:101E08006D420CDD2C4480EA020281EA030382EA77
:101E1800000083EA010180EA020281EA0303362D09
:101E280088BF30BD11F0004F4FEA01314FF4801CDC
:101E38004CEA113102D0404261EB410113F0004FEE
:101E48004FEA03334CEA133302D0524263EB4303A5
:101E580094EA050F00F0A780A4F10104D5F1200E43
:101E68000DDB02FA0EFC22FA05F2801841F100019E
:101E780003FA0EF2801843FA05F359410EE0A5F172
:101E880020050EF1200E012A03FA0EFC28BF4CF0A3
:101E9800020C43FA05F3C01851EBE37101F0004559
:101EA80007D54FF0000EDCF1000C7EEB00006EEB66
:101EB8000101B1F5801F1BD3B1F5001F0CD34908F0
:101EC8005FEA30004FEA3C0C04F101044FEA445247
:101ED80012F5800F80F09A80BCF1004F08BF5FEACE
:101EE800500C50F1000041EB045141EA050130BDAE
:101EF8005FEA4C0C404141EB010111F4801FA4F151
:101F08000104E9D191F0000F04BF01460020B1FAA5
:101F180081F308BF2033A3F10B03B3F120020CDADD
:101F28000C3208DD02F1140CC2F10C0201FA0CF0BB
:101F380021FA02F10CE002F11402D8BFC2F1200C20
:101F480001FA02F120FA0CFCDCBF41EA0C019040D6
:101F5800E41AA2BF01EB0451294330BD6FEA04041F
:101F68001F3C1CDA0C340EDC04F11404C4F120020A
:101F780020FA04F001FA02F340EA030021FA04F31C
:101F880045EA030130BDC4F10C04C4F1200220FA73
:101F980002F001FA04F340EA0300294630BD21FAB1
:101FA80004F0294630BD94F0000F83F4801306BF77
:101FB80081F480110134013D4EE77FEA645C18BF6B
:101FC8007FEA655C29D094EA050F08BF90EA020F02
:101FD80005D054EA000C04BF1946104630BD91EAFA
:101FE800030F1EBF0021002030BD5FEA545C05D1FD
:101FF8004000494128BF41F0004130BD14F580043C
:102008003CBF01F5801130BD01F0004545F0FE41AF
:1020180041F470014FF0000030BD7FEA645C1ABFE4
:10202800194610467FEA655C1CBF0B46024650EA1B
:10203800013406BF52EA033591EA030F41F4002147
:1020480030BD00BF90F0000F04BF0021704730B5CD
:102058004FF4806404F132044FF000054FF00001A2
:1020680050E700BF90F0000F04BF0021704730B563
:102078004FF4806404F1320410F0004548BF404238
:102088004FF000013EE700BF42004FEAE2014FEA8D
:1020980031014FEA02701FBF12F07F4393F07F4F68
:1020A80081F06051704732F07F4208BF704793F06B
:1020B8007F4F04BF41F40021704730B54FF460747E
:1020C80001F0004521F000411CE700BF50EA010281
:1020D80008BF704730B54FF000050AE050EA01022A
:1020E80008BF704730B511F0004502D5404261EB9A
:1020F80041014FF4806404F132045FEA915C3FF4DB
:10210800D8AE4FF003025FEADC0C18BF03325FEA77
:10211800DC0C18BF033202EBDC02C2F1200300FA28
:1021280003FC20FA02F001FA03FE40EA0E0021FA4D
:1021380002F11444BDE600BF70B54FF0FF0C4CF43B
:10214800E06C1CEA11541DBF1CEA135594EA0C0FED
:1021580095EA0C0F00F0DEF82C4481EA030621EA28
:102168004C5123EA4C5350EA013518BF52EA033563
:1021780041F4801143F4801338D0A0FB02CE4FF015
:102188000005E1FB02E506F00042E0FB03E54FF045
:102198000006E1FB03569CF0000F18BF4EF0010E3D
:1021A800A4F1FF04B6F5007F64F5407404D25FEA39
:1021B8004E0E6D4146EB060642EAC62141EA5551EC
:1021C8004FEAC52040EA5E504FEACE2EB4F1FD0C2E
:1021D80088BFBCF5E06F1ED8BEF1004F08BF5FEAAC
:1021E800500E50F1000041EB045170BD06F000465E
:1021F80046EA010140EA020081EA0301B4EB5C040B
:10220800C2BFD4EB0C0541EA045170BD41F4801102
:102218004FF0000E013C00F3AB8014F1360FDEBF27
:10222800002001F0004170BDC4F10004203C35DA03
:102238000C341BDC04F11404C4F1200500FA05F386
:1022480020FA04F001FA05F240EA020001F0004227
:1022580021F0004110EBD37021FA04F642EB06019D
:102268005EEA430E08BF20EAD37070BDC4F10C04C7
:10227800C4F1200500FA04F320FA05F001FA04F28B
:1022880040EA020001F0004110EBD37041F1000177
:102298005EEA430E08BF20EAD37070BDC4F1200582
:1022A80000FA05F24EEA020E20FA04F301FA05F2EA
:1022B80043EA020321FA04F001F0004121FA04F292
:1022C80020EA020000EBD3705EEA430E08BF20EA62
:1022D800D37070BD94F0000F0FD101F0004640009C
:1022E80041EB010111F4801F08BF013CF7D041EA1E
:1022F800060195F0000F18BF704703F00046520022
:1023080043EB030313F4801F08BF013DF7D043EAF2
:102318000603704794EA0C0F0CEA135518BF95EAA8
:102328000C0F0CD050EA410618BF52EA4306D1D12F
:1023380081EA030101F000414FF0000070BD50EA4E
:10234800410606BF1046194652EA430619D094EAD8
:102358000C0F02D150EA013613D195EA0C0F05D1C2
:1023680052EA03361CBF104619460AD181EA030116
:1023780001F0004141F0FE4141F470014FF00000CE
:1023880070BD41F0FE4141F4780170BD70B54FF069
:10239800FF0C4CF4E06C1CEA11541DBF1CEA1355E9
:1023A80094EA0C0F95EA0C0F00F0A7F8A4EB0504CB
:1023B80081EA030E52EA03354FEA013100F08880C2
:1023C8004FEA03334FF0805545EA131343EA12638B
:1023D8004FEA022245EA111545EA10654FEA002640
:1023E8000EF000419D4208BF964244F1FD0404F5F9
:1023F800407402D25B084FEA3202B61A65EB030555
:102408005B084FEA32024FF480104FF4002CB6EB11
:10241800020E75EB030E22BFB61A754640EA0C0091
:102428005B084FEA3202B6EB020E75EB030E22BFD1
:10243800B61A754640EA5C005B084FEA3202B6EB12
:10244800020E75EB030E22BFB61A754640EA9C00D1
:102458005B084FEA3202B6EB020E75EB030E22BFA1
:10246800B61A754640EADC0055EA060E18D04FEA5F
:10247800051545EA16754FEA06164FEAC30343EAFF
:1024880052734FEAC2025FEA1C1CC0D111F4801FCC
:102498000BD141EA00014FF000004FF0004CB6E7C5
:1024A80011F4801F04BF01430020B4F1FD0C88BF64
:1024B800BCF5E06F3FF6AFAEB5EB030C04BFB6EB6F
:1024C800020C5FEA500C50F1000041EB045170BD62
:1024D8000EF0004E4EEA113114EB5C04C2BFD4EB8F
:1024E8000C0541EA045170BD41F480114FF0000E13
:1024F800013C90E645EA060E8DE60CEA135594EA8F
:102508000C0F08BF95EA0C0F3FF43BAF94EA0C0F91
:102518000AD150EA01347FF434AF95EA0C0F7FF406
:1025280025AF104619462CE795EA0C0F06D152EA5A
:1025380003353FF4FDAE1046194622E750EA41063E
:1025480018BF52EA43067FF4C5AE50EA41047FF44F
:102558000DAF52EA43057FF4EBAE12E74A0011D201
:1025680012F5001211D20DD56FF47873B3EB6252E5
:102578000ED44FEAC12343F0004343EA505323FAF1
:1025880002F070474FF00000704750EA013002D166
:102598004FF0FF3070474FF000007047014B18684C
:1025A800704700BF3400002030B5141E05469BB0AC
:1025B800184605DA8B234FF0FF302B601BB030BD77
:1025C8004FF40273ADF80C300CBF234604F1FF330F
:1025D800029305934FF6FF7300910491ADF80E3006
:1025E80002461E9B6946284600F072F8431CBCBF91
:1025F8008B232B60002CE1D00022009B1A70DDE7B2
:1026080007B5009313460A46014603480068FFF7DA
:10261800CBFF03B05DF804FB340000202DE9F04740
:102628008E6882469E420C469046994637D88A89DB
:1026380012F4906F31D00223256809696F1A656911
:1026480005EB450595FBF3F509F101033B449D4274
:1026580038BF1D46530530D5294600F035FB0646E0
:1026680050B90C234FF0FF30CAF80030A38943F06B
:102678004003A381BDE8F0873A46216900F0B4FA27
:10268800A38923F4906343F08003A38126613E4429
:1026980026604E466561ED1BA5604E4500D94E4645
:1026A80032464146206800F0AAFAA36800209B1B26
:1026B800A36023681E442660DCE72A4600F05EFB20
:1026C80006460028E2D12169504600F0B1FAC8E771
:1026D8002DE9F04F9DB003938B8980461D060C466B
:1026E80016460FD50B696BB9402100F0EDFA206052
:1026F800206128B90C23C8F800304FF0FF30C7E03C
:10270800402363610023099320238DF82930302367
:102718004FF0010B8DF82A3037463D4615F8013B3E
:102728000BB1252B3ED1B7EB060A0BD053463246E8
:1027380021464046FFF772FF013000F0A480099B54
:10274800534409933B78002B00F09D8000234FF001
:10275800FF32CDE90523049307938DF853301A937C
:102768002F46052217F8011B4F4800F02FFA049B4B
:10277800D0B9D90644BF20228DF853201A0744BF88
:102788002B228DF853202A782A2A15D02F4600208C
:102798000A25079A394611F8013B303B092B4DD9D8
:1027A800B8B10FE02F46B8E73F4A3D46801A0BFA0A
:1027B80000F018430490D3E7039A111D126803919F
:1027C800002A01DB079204E0524243F00203079219
:1027D80004933B782E2B0CD17B782A2B33D1039B87
:1027E80002371A1D1B680392002BB8BF4FF0FF3346
:1027F80005932E4D03223978284600F0E7F938B1C1
:102808004023401B03FA00F0049B01370343049361
:102818003978062226487E1C8DF8281000F0D6F953
:10282800002838D0234B13BB039B073323F007033F
:1028380008330393099B4B4409936DE705FB023268
:1028480001200F46A6E700230A25194601370593FC
:10285800384610F8012B303A092A03D9002BC8D082
:102868000591C6E705FB012101230746F0E703AB05
:1028780000932246104B04A94046AFF30080B0F104
:10288800FF3F8146D6D1A3895B063FF536AF09984D
:102898001DB0BDE8F08F03AB00932246064B04A998
:1028A800404600F081F8EAE76C2F0008722F000814
:1028B800762F000800000000252600082DE9F047C3
:1028C80091461F468A680B6906469342B8BF13466D
:1028D800C9F8003091F843200C46DDF8208012B189
:1028E8000133C9F800302368990642BFD9F800308F
:1028F8000233C9F80030256815F0060507D104F140
:10290800190AE368D9F800209B1AAB4229DC94F82D
:1029180043302268003318BF012392062ED404F1F5
:10292800430239463046C047013021D02368E56864
:1029380003F00603042B18BF0025D9F800204FF038
:10294800000908BFAD1AA368226908BF25EAE57522
:102958009342C4BF9B1AED181A344D451AD1002072
:1029680008E00123524639463046C047013003D1BA
:102978004FF0FF30BDE8F0870135C2E73020E1189D
:1029880081F843005A1C94F845102244023382F817
:102998004310C4E70123224639463046C047013078
:1029A800E6D009F10109D8E72DE9F04301F1430C1C
:1029B8000C46097E85B06E291746064698460C9A3D
:1029C80000F0B38022D8632936D00AD8002900F055
:1029D800B980582900F0838004F1420584F8421038
:1029E80032E0642901D06929F6D120681368050608
:1029F80003F104012AD51B681160002B03DA2D228C
:102A08005B4284F843206F480A2239E0732900F0BA
:102A18009D8008D86F2920D07029DDD1236843F024
:102A28002003236003E0752917D07829D4D17823AF
:102A3800654884F8453055E0136804F14205191DCE
:102A48001B68116084F8423001238CE01B6810F089
:102A5800400F116018BF1BB2CFE713682568181D17
:102A68001060280601D51B6802E06806FBD51B88A4
:102A78006F2914BF0A2208225248002184F8431003
:102A88006568002DA560C0F29580216821F00401D9
:102A98002160002B3DD1002D40F08E806546082A2C
:102AA8000BD12368DB0708D5236962689A42DEBF29
:102AB800302305F8013C05F1FF35ACEB0503236134
:102AC800CDF800803B4603AA21463046FFF7F6FEC4
:102AD80001304DD14FF0FF3005B0BDE8F0833948E3
:102AE80084F84510136821681D1D1B6815600A06C7
:102AF8000BD5CA0744BF41F0200121601BB92268E9
:102B080022F0200222601022B7E74D0648BF9BB290
:102B1800EFE76546B3FBF2F102FB1133C35C05F83E
:102B2800013D0B460029F5D1B9E713682568181D42
:102B38006169106028061B6801D5196002E06A0601
:102B4800FBD51980002365462361B9E71368191D71
:102B580011601D6862680021284600F037F808B146
:102B6800401B606063682361002384F84330A7E753
:102B780023692A4639463046C0470130AAD023681F
:102B88009B0713D4E068039B9842B8BF1846A3E795
:102B980001234A4639463046C04701309AD00135AC
:102BA800E368039A9B1AAB42F2DCEBE7002504F1D9
:102BB8001909F5E7002BACD1037804F1420584F834
:102BC80042306CE77D2F00088E2F000810B5C9B27F
:102BD80002449042034601D1002303E01C780130EF
:102BE8008C42F6D1184610BD10B5431E0A449142D6
:102BF80000D110BD11F8014B03F8014FF7E78842E7
:102C080010B501EB020307D8421E99420AD011F809
:102C1800014B02F8014FF8E78342F5D98118D21A1F
:102C2800D34200D110BD13F8014D01F8014DF7E76B
:102C380038B50546002943D051F8043C0C1F002B39
:102C4800B8BFE41800F0D0F81E4A1368104633B92C
:102C5800636014602846BDE8384000F0C6B8A34257
:102C68000BD921686218934201BF1A685B68521831
:102C7800226063600460EDE713465A680AB1A24215
:102C8800FAD919685818A0420BD12068014458187D
:102C980082421960DED110685268014419605A6096
:102CA800D8E702D90C232B60D4E7206821188A4280
:102CB80001BF116852680918216062605C60C9E749
:102CC80038BD00BF0C02002070B5CD1C25F00305EF
:102CD80008350C2D38BF0C25002D064601DBA9420E
:102CE80003D90C233360002070BD00F07DF8214A21
:102CF8001468214691B9204C23681BB9304600F06E
:102D080063F820602946304600F05EF8431C24D161
:102D18000C233046336000F068F8E4E70B685B1B6F
:102D280018D40B2B0FD90B60CC18CD50304600F0BF
:102D38005CF804F10B00231D20F00700C31AD3D060
:102D48005A42E250D0E74B688C4216BF636013606A
:102D58000C46EBE70C464968CCE7C41C24F0030496
:102D6800A04205D0211A304600F02EF80130CFD00D
:102D78002560DBE70C02002010020020F8B50746AA
:102D880014460E4621B9BDE8F8401146FFF79CBF2E
:102D980022B9FFF74DFF25462846F8BD00F026F872
:102DA800A0420FD221463846FFF78EFF054600287D
:102DB800F2D031462246FFF717FF31463846FFF773
:102DC80037FFE9E73546E7E738B50023054C054600
:102DD80008462360FDF7CEFA431C02D1236803B1ED
:102DE8002B6038BD140200207047704751F8043C2E
:102DF800181F002BBCBF0B58C01870475374616371
:102E08006B206672616D653A0A000000205230201E
:102E18003D2020253038580A00000000205231207B
:102E28003D2020253038580A00000000205232206A
:102E38003D2020253038580A000000002052332059
:102E48003D2020253038580A000000002052313239
:102E5800203D20253038580A00000000204C522020
:102E68003D2020253038580A00000000205043201B
:102E78003D2020253038580A0000000020505352C9
:102E8800203D20253038580A000000004653522FB4
:102E98004641523A0A0000002043465352203D2042
:102EA80020253038580A00002048465352203D203B
:102EB80020253038580A00002044465352203D202F
:102EC80020253038580A00002041465352203D2022
:102ED80020253038580A0000204D4D464152203DEB
:102EE80020253038580A00002042464152203D2013
:102EF80020253038580A00004D6973630A00000025
:102F0800204C522F4558435F52455455524E3D2050
:102F1800253038580A0000005B48617264466175C4
:102F28006C745D0A000000005B4275734661756C45
:102F3800745D0A005B55736167654661756C745D05
:102F48000A0000000103010201000000000801401E
:102F5800000C01400010014000080140000C014035
:102F680000100140232D302B2000686C4C00656652
:102F780067454647003031323334353637383941C2
:102F880042434445460030313233343536373839D8
:072F980061626364656600DD
:102FA00078563412A4000020000000000000000049
:102FB00000000000010203040607080900A24A04F9
:102FC00000000401211A00080001020002020003AF
:102FD00002FFFFFF3800002000000000000000009A
:102FE00000000000000000000000000000000000E1
:102FF00000000000000000000000000000000000D1
:1030000000000000000000000000000000000000C0
:1030100000000000000000000000000000000000B0
:1030200000000000000000000000000000000000A0
:0C30300000000000000000003254769800
:040000050800010DE1
:00000001FF
