:020000040800F2
:100000000050002021020008270200082B020008EF
:100010009D020008A1020008E9020008000000009B
:100020000000000000000000000000003103000894
:100030003503000800000000390300088D0F000898
:100040004D0300084D0300084D0300084D03000850
:100050004D0300084D0300084D0300084D03000840
:100060004D0300084D0300084D0300084D03000830
:100070004D0300084D0300084D0300084D03000820
:100080004D0300084D0300084D0300084D03000810
:100090004D0300084D0300084D0300084D03000800
:1000A0004D0300084D0300084D0300084D030008F0
:1000B0004D0300084D0300084D0300084D030008E0
:1000C0004D0300084D0300084D0300084D030008D0
:1000D0004D0300084D0300084D0300084D030008C0
:1000E0004D0300084D0300084D0300080000000008
:1000F0000000000000000000000000000000000000
:1001000000000000000000005FF808F100B583B0B7
:1001100000F0AAF9304B314A1360314A1360314B79
:10012000314A32498B4204D21168196004330432D7
:10013000F7E72A4B1A682E4B9A4200D0FEE7284B6D
:100140001A682C4B9A42F9D1234B2B4A13602B4A45
:1001500013602B4B02E000221A600433294A9342B9
:10016000F9D3254B1B6813B9244B1B6803B1FEE779
:1001700000F086F9694601A800F022F9224C234BD1
:10018000E41AA4100025AC4214DC214C214BE41AE3
:10019000A4100025AC4213DC0099019800F0DEFAAF
:1001A00005461D4C1D4BE41AA410002C0EDC2846FD
:1001B00000F0E2F8154B53F8253098470135E2E797
:1001C000144B53F8253098470135E3E7013C134BB6
:1001D00053F824309847E8E7BABADECA0000002096
:1001E0009C0000200000002018470008A00000200C
:1001F0007856341232547698A00000204401002032
:10020000A0000020480100207803000878030008BF
:1002100078030008780300087803000878030008D2
:1002200008B5FFF773FF00BEFEE71EF0040F0CBF1A
:10023000EFF30880EFF309807146414A10472DE93A
:10024000F04182B004468846124B5E6B9F6B9D6AFC
:100250001B6B13F0020F03D00E4BDB6A002B0CDB81
:100260000D4800F0B5F8CDF800803B4632462946EF
:10027000204600F009F900BEFEE74BF6AB6100F046
:100280007DF90028ECD0034B4FF00042DA6202B057
:10029000BDE8F08100ED00E04421000800BEFEE76B
:1002A0001EF0040F0CBFEFF30880EFF309807146D6
:1002B000244A10472DE9F04182B004468846084B95
:1002C0005E6B9F6B9D6A074800F082F8CDF8008056
:1002D0003B4632462946204600F0D6F800BEFEE7EF
:1002E00000ED00E0542100081EF0040F0CBFEFF3F6
:1002F0000880EFF309807146134A10472DE9F04159
:1003000082B004468846084B5E6B9F6B9D6A074827
:1003100000F05EF8CDF800803B4632462946204684
:1003200000F0B2F800BEFEE700ED00E0602100083A
:1003300000BEFEE700BEFEE700BEFEE7704700001D
:100340003F020008B5020008FD02000800BEFEE7FB
:100350001847000800000020A000002018470008EF
:100360000000000000000000A00000204801002064
:08037000000000000000000085
:10037800FEE7000008B503460C4A12685AB10B4A5A
:100388001068033323F003030344094A934206D851
:10039800064A136008BD054A06491160EFE701F0F7
:1003A8000FFA0C2303604FF0FF30F3E7A40000209E
:1003B800004C00204801002001230360014B0B6022
:1003C800704700BF040000200FB400B583B004AB31
:1003D80053F8042B01938021064801F023FA0028E2
:1003E80003DD0146034800F037F803B05DF804EB7D
:1003F80004B07047AC0000202DE9F04385B00446F6
:100408000F4643560BB10E461EE0042528462146EA
:10041800ABBE0446384605B0BDE8F08314F9011BAD
:1004280004AA1A4402F8101C0133AB42F6D304AAFA
:100438001344002203F8102C4FF00408E946404604
:100448004946ABBE8046761B002EE3D03546102EBB
:1004580028BF10250023E8E708B5FFF7CDFF08BD42
:1004680008B500F0FDF8024A024B9A6008BD00BFCB
:100478000000000800ED00E008B500F019F908BD1B
:10048800F8B504460D4617461E462748FFF79CFF59
:1004980021682648FFF798FF61682548FFF794FF11
:1004A800A1682448FFF790FFE1682348FFF78CFF15
:1004B80021692248FFF788FF61692148FFF784FF17
:1004C800A1692048FFF780FFE1691F48FFF77CFF1B
:1004D8001E48FFF779FF29461D48FFF775FF1D4C99
:1004E800E16A1D48FFF770FF216B1C48FFF76CFF9E
:1004F800E16B1B48FFF768FF15F0800F0AD115F470
:10050800004F0CD11748FFF75FFF06991648FFF711
:100518005BFFF8BD39461548FFF756FFEFE7314650
:100528001348FFF751FFEDE728200008382000089E
:100538004820000858200008682000087820000893
:100548008820000898200008A8200008B820000883
:10055800C420000800ED00E0D4200008E4200008D2
:10056800F4200008242100082C2100080421000898
:100578001421000883691A888A4201D00020704734
:100588000268033A012A03D80233836101207047C5
:100598000020704782B00023019300932C4A13680F
:1005A80043F4803313602A4B1B6803F40033009331
:1005B800019B01330193009B1BB9019BB3F5A06F0D
:1005C800F1D1234B1B6813F4003F06D0012300939D
:1005D800009B012B04D002B0704700230093F7E77B
:1005E8001C4B1A6842F010021A601A6822F00302C3
:1005F8001A601A6842F002021A60A3F580535A681A
:100608005A605A685A605A6842F480625A605A6856
:1006180022F47C125A605A6842F4E8125A601A6846
:1006280042F080721A600A4B1B6813F0007FFAD000
:10063800074B5A6822F003025A605A6842F00202D5
:100648005A60034B5B6803F00C03082BF9D1C2E72F
:10065800001002400020024008B5FFF79BFF08BDCC
:1006680008B5104B1A6842F001021A6059680E4A20
:100678000A405A601A6822F0847222F480321A60A2
:100688001A6822F480221A605A6822F4FE025A601C
:100698004FF41F029A60FFF7DFFF044B4FF0006230
:1006A8009A6008BD001002400000FFF800ED00E06D
:1006B8001F4B5B6803F00C03042B15D0082B17D0D5
:1006C8001BB11C4B1C4A1A6002E01A4B1A4A1A60EA
:1006D800174B5B68C3F30313184AD35CDAB21549A6
:1006E8000B68D3400B607047124B134A1A60EFE750
:1006F8000F4A53685268C3F38343023312F4803FAE
:100708000AD00B4A526812F4003F0BD00C4A02FB85
:1007180003F3084A1360DBE7094A02FB03F3054ABF
:100728001360D5E7044A02FB03F3024A1360CFE7DC
:10073800001002401C00002000127A000C0000206B
:1007480000093D0008B5024800F04AF808BD00BF9E
:100758007821000810B584B000248DF80C408DF87D
:100768000D4001238DF80E30134B1A6802925B6816
:10077800ADF804301B0C8DF8063003A800F04AFBD6
:1007880002A9022000F096FB00F01AF800F0A2FB84
:1007980001A800F03DF8094A21467D2000F0A4FB9D
:1007A80001A800F097FA0028FAD0044A00217D2019
:1007B80000F09AFBF4E700BF702100084D0700081D
:1007C80010B5002407E004EB44030448184400F083
:1007D8001FF80134E4B2072CF5D910BD2000002021
:1007E80010B50A4C23889BB2C15C002000F00AFBBC
:1007F800238801339BB2238023889BB242F25E5246
:10080800934200D010BD00222280FBE72C0100207B
:100818000346002800F0588242780F2A00F25682D8
:10082800DFE812F01000340058007C00A000C4007B
:10083800E8000C01300156017A019E01C201E6016F
:100848000A022E020178A14A52F821208078116804
:1008580060F3030111609A78082A03D0182A0BD094
:10086800012070471A78994B53F82230DA686FF3F1
:100878000002DA60012070471A78944B53F822205E
:10088800D36843F00103D3600120704701788F4A91
:1008980052F821208078116860F3071111609A7866
:1008A800082A03D0182A0BD0012070471A78874BE2
:1008B80053F82230DA686FF34102DA60012070479A
:1008C8001A78824B53F82220D36843F00203D3608E
:1008D8000120704701787D4A52F8212080781168FC
:1008E80060F30B2111609A78082A03D0182A0BD0DC
:1008F800012070471A78754B53F82230DA686FF385
:100908008202DA60012070471A78704B53F822206F
:10091800D36843F00403D3600120704701786B4A21
:1009280052F821208078116860F30F3111609A78AD
:10093800082A03D0182A0BD0012070471A78634B75
:1009480053F82230DA686FF3C302DA600120704787
:100958001A785E4B53F82220D36843F00803D3601B
:10096800012070470178594A52F82120807811688F
:1009780060F3134111609A78082A03D0182A0BD023
:10098800012070471A78514B53F82230DA686FF318
:100998000412DA60012070471A784C4B53F8222071
:1009A800D36843F01003D360012070470178474AA9
:1009B80052F821208078116860F3175111609A78F5
:1009C800082A03D0182A0BD0012070471A783F4B09
:1009D80053F82230DA686FF34512DA600120704765
:1009E8001A783A4B53F82220D36843F02003D36097
:1009F800012070470178354A52F821208078116823
:100A080060F31B6111609A78082A03D0182A0BD06A
:100A1800012070471A782D4B53F82230DA686FF3AB
:100A28008612DA60012070471A78284B53F8222082
:100A3800D36843F04003D360012070470178234A0C
:100A480052F821208078116860F31F7111609A783C
:100A5800082A03D0182A0BD0012070471A781B4B9C
:100A680053F82230DA686FF3C712DA600120704752
:100A78001A78164B53F82220D36843F08003D360CA
:100A8800012070470178114A52F821208078516876
:100A980060F3030151609A78082A03D0182A0BD012
:100AA800012070471A78094B53F82230DA686FF33F
:100AB8000822DA60012070471A78044B53F8222084
:100AC800D36843F48073D36001207047D846000888
:100AD80001787F4A52F821208078516860F3071125
:100AE80051609A78082A03D0182A0BD00120704741
:100AF8001A78774B53F82230DA686FF34922DA60B4
:100B0800012070471A78724B53F82220D36843F4B7
:100B18000073D3600120704701786D4A52F8212094
:100B28008078516860F30B2151609A78082A03D0C5
:100B3800182A0BD0012070471A78654B53F82230D9
:100B4800DA686FF38A22DA60012070471A78604BFE
:100B580053F82220D36843F48063D36001207047A0
:100B680001785B4A52F821208078516860F30F3190
:100B780051609A78082A03D0182A0BD001207047B0
:100B88001A78534B53F82230DA686FF3CB22DA60C5
:100B9800012070471A784E4B53F82220D36843F44B
:100BA8000063D360012070470178494A52F8212038
:100BB8008078516860F3134151609A78082A03D00D
:100BC800182A0BD0012070471A78414B53F822306D
:100BD800DA686FF30C32DA60012070471A783C4B00
:100BE80053F82220D36843F48053D3600120704720
:100BF8000178374A52F821208078516860F31751FC
:100C080051609A78082A03D0182A0BD0012070471F
:100C18001A782F4B53F82230DA686FF34D32DA60C6
:100C2800012070471A782A4B53F82220D36843F4DE
:100C38000053D360012070470178254A52F82120DB
:100C48008078516860F31B6151609A78082A03D054
:100C5800182A0BD0012070471A781D4B53F8223000
:100C6800DA686FF38E32DA60012070471A78184B11
:100C780053F82220D36843F48043D360012070479F
:100C88000178134A52F821208078516860F31F7167
:100C980051609A78082A03D0182A0BD0012070478F
:100CA8001A780B4B53F82230DA686FF3DF32DA60C8
:100CB800012070471A78064B53F82230DA68012071
:100CC80060F3DF32DA607047002070470020704719
:100CD800D8460008002800F08E8042780F2A00F2DB
:100CE8008C80DFE802F0081018202830384048507F
:100CF8005860687078800278414B53F822309868C1
:100D080000F00100704702783D4B53F82230986894
:100D1800C0F3400070470278394B53F82230986886
:100D2800C0F3800070470278354B53F8223098683A
:100D3800C0F3C00070470278314B53F822309868EE
:100D4800C0F30010704702782D4B53F82230986892
:100D5800C0F3401070470278294B53F82230986846
:100D6800C0F3801070470278254B53F822309868FA
:100D7800C0F3C01070470278214B53F822309868AE
:100D8800C0F30020704702781D4B53F82230986852
:100D9800C0F3402070470278194B53F82230986806
:100DA800C0F3802070470278154B53F822309868BA
:100DB800C0F3C02070470278114B53F8223098686E
:100DC800C0F30030704702780D4B53F82230986812
:100DD800C0F3403070470278094B53F822309868C6
:100DE800C0F3803070470278054B53F8223098687A
:100DF800C0F3C7307047002070470020704700BF1D
:100E0800D8460008024B53F82030D960704700BF1D
:100E1800D84600080178114B1A6861F3D7421A6066
:100E280041781A6861F392421A601A6842F4803273
:100E38001A6081785A6861F301025A60002200E062
:100E48001A46064B1B6813F4003F05D1531C9BB28E
:100E580041F288318A42F3D9704700BF001002403E
:100E68000378022B21D8012B0DD01BB1022B13D0F4
:100E7800012070470E494B694278012000FA02F2BE
:100E880013434B6170470A498B694278012000FA85
:100E980002F213438B6170470549CB694278012000
:100EA80000FA02F21343CB6170470020704700BF7D
:100EB8000010024070B505460E460120002405E0EA
:100EC80006EB4400FFF7CCFF0134E4B2AC42F7D3A1
:100ED80070BD0000024B1A686FF382021A607047F7
:100EE80010E000E000000000002A39D038B51546AF
:100EF800214B1B78002B35D10C4619B101291AD08A
:100F0800002005E01D4B5A6860F317025A60012063
:100F18001A4B196841F001011960194A15601A68DD
:100F280042F002021A609A686FF317029A60124B35
:100F380001221A7038BD00F097F90BA3D3E90023FA
:100F480000F00CFA0AA3D3E9002300F031FB00F00B
:100F580017FC0A4B5A6860F317025A602046D7E715
:100F6800002070470020E5E7FCA9F1D24D62503F10
:100F78008DEDB5A0F7C6B03E3001002010E000E0CE
:100F88003401002008B5134B1B689847124B1B8887
:100F98009BB242F25E52934205D00F4A1388013346
:100FA8009BB2138008BD00220C4B1A700C4B1968B9
:100FB80062F341011960996862F3170199605968F1
:100FC80062F317015960196862F300011960024B56
:100FD8001A80E2E7340100202E01002030010020B1
:100FE80010E000E081F0004102E000BF83F0004320
:100FF80030B54FEA41044FEA430594EA050F08BFAC
:1010080090EA020F1FBF54EA000C55EA020C7FEA6F
:10101800645C7FEA655C00F0E2804FEA5454D4EBEC
:101028005555B8BF6D420CDD2C4480EA020281EAB6
:10103800030382EA000083EA010180EA020281EAEE
:101048000303362D88BF30BD11F0004F4FEA013140
:101058004FF4801C4CEA113102D0404261EB41014F
:1010680013F0004F4FEA03334CEA133302D05242D5
:1010780063EB430394EA050F00F0A780A4F1010491
:10108800D5F1200E0DDB02FA0EFC22FA05F28018CB
:1010980041F1000103FA0EF2801843FA05F35941B1
:1010A8000EE0A5F120050EF1200E012A03FA0EFC30
:1010B80028BF4CF0020C43FA05F3C01851EBE3715A
:1010C80001F0004507D54FF0000EDCF1000C7EEB77
:1010D80000006EEB0101B1F5801F1BD3B1F5001FB5
:1010E8000CD349085FEA30004FEA3C0C04F10104D4
:1010F8004FEA445212F5800F80F09A80BCF1004FFD
:1011080008BF5FEA500C50F1000041EB045141EA7E
:10111800050130BD5FEA4C0C404141EB010111F47F
:10112800801FA4F10104E9D191F0000F04BF01462A
:101138000020B1FA81F308BF2033A3F10B03B3F108
:1011480020020CDA0C3208DD02F1140CC2F10C0298
:1011580001FA0CF021FA02F10CE002F11402D8BFF6
:10116800C2F1200C01FA02F120FA0CFCDCBF41EAC2
:101178000C019040E41AA2BF01EB0451294330BD91
:101188006FEA04041F3C1CDA0C340EDC04F114046E
:10119800C4F1200220FA04F001FA02F340EA030045
:1011A80021FA04F345EA030130BDC4F10C04C4F18B
:1011B800200220FA02F001FA04F340EA030029466B
:1011C80030BD21FA04F0294630BD94F0000F83F4B5
:1011D800801306BF81F480110134013D4EE77FEA98
:1011E800645C18BF7FEA655C29D094EA050F08BFE4
:1011F80090EA020F05D054EA000C04BF19461046C5
:1012080030BD91EA030F1EBF0021002030BD5FEA08
:10121800545C05D14000494128BF41F0004130BD30
:1012280014F580043CBF01F5801130BD01F0004584
:1012380045F0FE4141F470014FF0000030BD7FEAF7
:10124800645C1ABF194610467FEA655C1CBF0B46F2
:10125800024650EA013406BF52EA033591EA030F09
:1012680041F4002130BD00BF90F0000F04BF002101
:10127800704730B54FF4806404F132044FF0000534
:101288004FF0000150E700BF90F0000F04BF0021AD
:10129800704730B54FF4806404F1320410F0004513
:1012A80048BF40424FF000013EE700BF42004FEA0E
:1012B800E2014FEA31014FEA02701FBF12F07F438B
:1012C80093F07F4F81F06051704732F07F4208BF42
:1012D800704793F07F4F04BF41F40021704730B549
:1012E8004FF4607401F0004521F000411CE700BF95
:1012F80050EA010208BF704730B54FF000050AE018
:1013080050EA010208BF704730B511F0004502D518
:10131800404261EB41014FF4806404F132045FEA1A
:10132800915C3FF4D8AE4FF003025FEADC0C18BFC3
:1013380003325FEADC0C18BF033202EBDC02C2F1B5
:10134800200300FA03FC20FA02F001FA03FE40EA47
:101358000E0021FA02F11444BDE600BF70B54FF04B
:10136800FF0C4CF4E06C1CEA11541DBF1CEA135529
:1013780094EA0C0F95EA0C0F00F0DEF82C4481EA91
:10138800030621EA4C5123EA4C5350EA013518BFB1
:1013980052EA033541F4801143F4801338D0A0FB9E
:1013A80002CE4FF00005E1FB02E506F00042E0FB4B
:1013B80003E54FF00006E1FB03569CF0000F18BF51
:1013C8004EF0010EA4F1FF04B6F5007F64F54074F9
:1013D80004D25FEA4E0E6D4146EB060642EAC6218C
:1013E80041EA55514FEAC52040EA5E504FEACE2EF9
:1013F800B4F1FD0C88BFBCF5E06F1ED8BEF1004FFC
:1014080008BF5FEA500E50F1000041EB045170BD77
:1014180006F0004646EA010140EA020081EA0301BB
:10142800B4EB5C04C2BFD4EB0C0541EA045170BDB7
:1014380041F480114FF0000E013C00F3AB8014F131
:10144800360FDEBF002001F0004170BDC4F100047A
:10145800203C35DA0C341BDC04F11404C4F12005FB
:1014680000FA05F320FA04F001FA05F240EA020056
:1014780001F0004221F0004110EBD37021FA04F68C
:1014880042EB06015EEA430E08BF20EAD37070BD46
:10149800C4F10C04C4F1200500FA04F320FA05F0A5
:1014A80001FA04F240EA020001F0004110EBD370A7
:1014B80041F100015EEA430E08BF20EAD37070BD17
:1014C800C4F1200500FA05F24EEA020E20FA04F3F0
:1014D80001FA05F243EA020321FA04F001F000419F
:1014E80021FA04F220EA020000EBD3705EEA430E10
:1014F80008BF20EAD37070BD94F0000F0FD101F03F
:101508000046400041EB010111F4801F08BF013C77
:10151800F7D041EA060195F0000F18BF704703F0B5
:101528000046520043EB030313F4801F08BF013D3C
:10153800F7D043EA0603704794EA0C0F0CEA1355F8
:1015480018BF95EA0C0F0CD050EA410618BF52EAB2
:101558004306D1D181EA030101F000414FF00000B8
:1015680070BD50EA410606BF1046194652EA4306C6
:1015780019D094EA0C0F02D150EA013613D195EA3A
:101588000C0F05D152EA03361CBF104619460AD182
:1015980081EA030101F0004141F0FE4141F470018C
:1015A8004FF0000070BD41F0FE4141F4780170BD7C
:1015B80070B54FF0FF0C4CF4E06C1CEA11541DBFE1
:1015C8001CEA135594EA0C0F95EA0C0F00F0A7F8E3
:1015D800A4EB050481EA030E52EA03354FEA013110
:1015E80000F088804FEA03334FF0805545EA131323
:1015F80043EA12634FEA022245EA111545EA1065EB
:101608004FEA00260EF000419D4208BF964244F181
:10161800FD0404F5407402D25B084FEA3202B61AA0
:1016280065EB03055B084FEA32024FF480104FF474
:10163800002CB6EB020E75EB030E22BFB61A7546E8
:1016480040EA0C005B084FEA3202B6EB020E75EB7B
:10165800030E22BFB61A754640EA5C005B084FEAE3
:101668003202B6EB020E75EB030E22BFB61A7546B0
:1016780040EA9C005B084FEA3202B6EB020E75EBBB
:10168800030E22BFB61A754640EADC0055EA060E7C
:1016980018D04FEA051545EA16754FEA06164FEABF
:1016A800C30343EA52734FEAC2025FEA1C1CC0D16B
:1016B80011F4801F0BD141EA00014FF000004FF0F8
:1016C800004CB6E711F4801F04BF01430020B4F1B9
:1016D800FD0C88BFBCF5E06F3FF6AFAEB5EB030C71
:1016E80004BFB6EB020C5FEA500C50F1000041EB6E
:1016F800045170BD0EF0004E4EEA113114EB5C043B
:10170800C2BFD4EB0C0541EA045170BD41F480110D
:101718004FF0000E013C90E645EA060E8DE60CEA15
:10172800135594EA0C0F08BF95EA0C0F3FF43BAF32
:1017380094EA0C0F0AD150EA01347FF434AF95EAE9
:101748000C0F7FF425AF104619462CE795EA0C0FCD
:1017580006D152EA03353FF4FDAE1046194622E79A
:1017680050EA410618BF52EA43067FF4C5AE50EA74
:1017780041047FF40DAF52EA43057FF4EBAE12E764
:101788004A0011D212F5001211D20DD56FF47873F8
:10179800B3EB62520ED44FEAC12343F0004343EA4D
:1017A800505323FA02F070474FF00000704750EA98
:1017B800013002D14FF0FF3070474FF00000704702
:1017C800014B1868704700BF3800002030B5141E60
:1017D80005469BB0184605DA8B234FF0FF302B6087
:1017E8001BB030BD4FF40273ADF80C300CBF23466C
:1017F80004F1FF33029305934FF6FF7300910491B0
:10180800ADF80E3002461E9B6946284600F072F875
:10181800431CBCBF8B232B60002CE1D00022009B13
:101828001A70DDE707B5009313460A4601460348D8
:101838000068FFF7CBFF03B05DF804FB3800002019
:101848002DE9F0478E6882469E420C46904699469E
:1018580037D88A8912F4906F31D002232568096934
:101868006F1A656905EB450595FBF3F509F1010369
:101878003B449D4238BF1D46530530D5294600F0EC
:1018880035FB064650B90C234FF0FF30CAF800303C
:10189800A38943F04003A381BDE8F0873A46216954
:1018A80000F0B4FAA38923F4906343F08003A38182
:1018B80026613E4426604E466561ED1BA5604E4597
:1018C80000D94E4632464146206800F0AAFAA3687D
:1018D80000209B1BA36023681E442660DCE72A4681
:1018E80000F05EFB06460028E2D12169504600F070
:1018F800B1FAC8E72DE9F04F9DB003938B89804674
:101908001D060C4616460FD50B696BB9402100F031
:10191800EDFA2060206128B90C23C8F800304FF098
:10192800FF30C7E0402363610023099320238DF82B
:10193800293030234FF0010B8DF82A3037463D46C9
:1019480015F8013B0BB1252B3ED1B7EB060A0BD09E
:101958005346324621464046FFF772FF013000F0F9
:10196800A480099B534409933B78002B00F09D8089
:1019780000234FF0FF32CDE90523049307938DF838
:1019880053301A932F46052217F8011B4F4800F0D1
:101998002FFA049BD0B9D90644BF20228DF85320D2
:1019A8001A0744BF2B228DF853202A782A2A15D0EB
:1019B8002F4600200A25079A394611F8013B303B8B
:1019C800092B4DD9B8B10FE02F46B8E73F4A3D463D
:1019D800801A0BFA00F018430490D3E7039A111DFC
:1019E80012680391002A01DB079204E0524243F097
:1019F8000203079204933B782E2B0CD17B782A2B79
:101A080033D1039B02371A1D1B680392002BB8BF02
:101A18004FF0FF3305932E4D03223978284600F006
:101A2800E7F938B14023401B03FA00F0049B013763
:101A3800034304933978062226487E1C8DF8281023
:101A480000F0D6F9002838D0234B13BB039B07338B
:101A580023F0070308330393099B4B4409936DE76D
:101A680005FB023201200F46A6E700230A25194686
:101A780001370593384610F8012B303A092A03D963
:101A8800002BC8D00591C6E705FB012101230746B5
:101A9800F0E703AB00932246104B04A94046AFF38E
:101AA8000080B0F1FF3F8146D6D1A3895B063FF5A0
:101AB80036AF09981DB0BDE8F08F03AB00932246FE
:101AC800064B04A9404600F081F8EAE7E44600081E
:101AD800EA460008EE460008000000004918000821
:101AE8002DE9F04791461F468A680B6906469342DE
:101AF800B8BF1346C9F8003091F843200C46DDF80A
:101B0800208012B10133C9F800302368990642BF1A
:101B1800D9F800300233C9F80030256815F00605F9
:101B280007D104F1190AE368D9F800209B1AAB42DF
:101B380029DC94F843302268003318BF0123920649
:101B48002ED404F1430239463046C047013021D033
:101B58002368E56803F00603042B18BF0025D9F8AD
:101B680000204FF0000908BFAD1AA368226908BF1A
:101B780025EAE5759342C4BF9B1AED181A344D4502
:101B88001AD1002008E00123524639463046C047A2
:101B9800013003D14FF0FF30BDE8F0870135C2E7CF
:101BA8003020E11881F843005A1C94F8451022446B
:101BB800023382F84310C4E70123224639463046EF
:101BC800C0470130E6D009F10109D8E72DE9F04313
:101BD80001F1430C0C46097E85B06E29174606466E
:101BE80098460C9A00F0B38022D8632936D00AD8D8
:101BF800002900F0B980582900F0838004F14205DB
:101C080084F8421032E0642901D06929F6D12068AD
:101C18001368050603F104012AD51B681160002B1F
:101C280003DA2D225B4284F843206F480A2239E008
:101C3800732900F09D8008D86F2920D07029DDD144
:101C4800236843F02003236003E0752917D078291F
:101C5800D4D17823654884F8453055E0136804F1F9
:101C68004205191D1B68116084F8423001238CE07D
:101C78001B6810F0400F116018BF1BB2CFE7136844
:101C88002568181D1060280601D51B6802E0680643
:101C9800FBD51B886F2914BF0A220822524800214D
:101CA80084F843106568002DA560C0F2958021680E
:101CB80021F004012160002B3DD1002D40F08E80E1
:101CC8006546082A0BD12368DB0708D523696268B3
:101CD8009A42DEBF302305F8013C05F1FF35ACEB35
:101CE80005032361CDF800803B4603AA2146304610
:101CF800FFF7F6FE01304DD14FF0FF3005B0BDE8DB
:101D0800F083394884F84510136821681D1D1B6845
:101D180015600A060BD5CA0744BF41F020012160AF
:101D28001BB9226822F0200222601022B7E74D0674
:101D380048BF9BB2EFE76546B3FBF2F102FB1133F4
:101D4800C35C05F8013D0B460029F5D1B9E71368D6
:101D58002568181D6169106028061B6801D519607F
:101D680002E06A06FBD51980002365462361B9E7BE
:101D78001368191D11601D6862680021284600F06B
:101D880037F808B1401B606063682361002384F85A
:101D98004330A7E723692A4639463046C047013011
:101DA800AAD023689B0713D4E068039B9842B8BF66
:101DB8001846A3E701234A4639463046C047013052
:101DC8009AD00135E368039A9B1AAB42F2DCEBE741
:101DD800002504F11909F5E7002BACD1037804F1CB
:101DE800420584F842306CE7F546000806470008CB
:101DF80010B5C9B202449042034601D1002303E062
:101E08001C7801308C42F6D1184610BD10B5431E1F
:101E18000A44914200D110BD11F8014B03F8014F5B
:101E2800F7E7884210B501EB020307D8421E994232
:101E38000AD011F8014B02F8014FF8E78342F5D9AF
:101E48008118D21AD34200D110BD13F8014D01F800
:101E5800014DF7E738B50546002943D051F8043C51
:101E68000C1F002BB8BFE41800F0D0F81E4A136806
:101E7800104633B9636014602846BDE8384000F066
:101E8800C6B8A3420BD921686218934201BF1A68E9
:101E98005B685218226063600460EDE713465A6875
:101EA8000AB1A242FAD919685818A0420BD1206881
:101EB8000144581882421960DED110685268014402
:101EC80019605A60D8E702D90C232B60D4E7206840
:101ED80021188A4201BF116852680918216062609E
:101EE8005C60C9E738BD00BF3801002070B5CD1C63
:101EF80025F0030508350C2D38BF0C25002D0646A6
:101F080001DBA94203D90C233360002070BD00F027
:101F18007DF8214A1468214691B9204C23681BB9E1
:101F2800304600F063F820602946304600F05EF83D
:101F3800431C24D10C233046336000F068F8E4E7F2
:101F48000B685B1B18D40B2B0FD90B60CC18CD502A
:101F5800304600F05CF804F10B00231D20F0070068
:101F6800C31AD3D05A42E250D0E74B688C4216BF0E
:101F7800636013600C46EBE70C464968CCE7C41C69
:101F880024F00304A04205D0211A304600F02EF8B0
:101F98000130CFD02560DBE7380100203C0100206C
:101FA800F8B5074614460E4621B9BDE8F840114673
:101FB800FFF79CBF22B9FFF74DFF25462846F8BD1D
:101FC80000F026F8A0420FD221463846FFF78EFFD0
:101FD80005460028F2D031462246FFF717FF314662
:101FE8003846FFF737FFE9E73546E7E738B5002316
:101FF800054C054608462360FEF7BCF9431C02D190
:10200800236803B12B6038BD40010020704770473A
:1020180051F8043C181F002BBCBF0B58C018704760
:10202800537461636B206672616D653A0A00000043
:10203800205230203D2020253038580A000000006A
:10204800205231203D2020253038580A0000000059
:10205800205232203D2020253038580A0000000048
:10206800205233203D2020253038580A0000000037
:1020780020523132203D20253038580A0000000017
:10208800204C52203D2020253038580A00000000FE
:10209800205043203D2020253038580A00000000F9
:1020A80020505352203D20253038580A00000000A7
:1020B8004653522F4641523A0A00000020434653E5
:1020C80052203D2020253038580A00002048465329
:1020D80052203D2020253038580A0000204446531D
:1020E80052203D2020253038580A00002041465310
:1020F80052203D2020253038580A0000204D4D46FA
:102108004152203D20253038580A000020424641DF
:1021180052203D2020253038580A00004D6973634D
:102128000A000000204C522F4558435F5245545531
:10213800524E3D20253038580A0000005B48617235
:10214800644661756C745D0A000000005B4275733B
:102158004661756C745D0A005B557361676546611D
:10216800756C745D0A00000001020103010008009B
:102178007E7D7F81828588848280818084827C794B
:102188007E807C7C7B7E807E7C7D8084857F7B7C62
:102198007C7F7E7F837E807F808483817F7B7E7F40
:1021A8007F8083848080828180817E7E7F81807B26
:1021B8007A7B7E7E7E7E80827F7E7C7D7E7D7E7B3E
:1021C8007B7C7F8182848284848281828483837EF3
:1021D8007F828283847F7E82808282817D797C80F7
:1021E800817E7B7C7C7D7C7F817A76747D82817F19
:1021F8007D7F81828080807F7B7C818281868886CA
:10220800807F838386807D7E7D81807E7F7F7C7FCB
:10221800817F80807D7A7A7D7B787C7E7F81817FDB
:102228007E828585847E7B81828582818284858386
:102238007F7F81818283827F7E807F7E7D7D7C7BA4
:102248008180817E7A797C82837D787E7F83807E9F
:10225800828485818280807F7E817D7D7E8283826B
:1022680083807E7F82807E7A777B7F7E7E7C7D7E88
:102278007D7E807F7D7D7F7E7F818382807F7D7F65
:102288008283838180807D7F82828685827F7D8034
:1022980082807E7B7C7F80807F7E7E807F7B7D7B53
:1022A8007A7B7E7E7E7F81837F7F7F7F828682832B
:1022B8008482818081818283858584807E7F8483F6
:1022C8007F7E7A7C7E7F807E7C7B797A7D7E7C7E39
:1022D8007B787B8084827E7D7C7F83807F7F818208
:1022E800818281807F80818686878584807D7D7CD0
:1022F8007B7D81808081817F7C7B7D797A7D7D7B00
:102308007E807D807D7D7D7F8686848180828282BD
:1023180082817F7D7F82838584817F7E7F7F7D7EB2
:102328008382807D7B7C7F817F7C7A7A7C7F8081C1
:10233800817E7E7F8080808384838385837F7F7D89
:102348007E81838181818384817F7C7A7D7F7E7E8B
:102358007F7E797B7E7E7B7B7E80807F8180808193
:102368007F7F7F80828284827F7F82807F7E7D7F65
:102378008284828280807F7F7C7B7D7E807D7C7D65
:102388007E7F7E7E7D7C7C7C7E807F7D7D7C7E8466
:102398008483838385838484817F7F81848582800D
:1023A8007F828385817B7A7E817F7F7D7E7E7F7F32
:1023B8007B7B7B7C7D7C7D7D7C7F8081817F807F3A
:1023C80080838484817E7F817F80828286868685E1
:1023D80082807F8182828282807C7D7C7D7C7C7B06
:1023E800787D7E7D7E81817F7D7A7B7D8282828100
:1023F8008080818482817F80828383817E7D7D7DD0
:102408007D8080807F7D808180807D7B7C7C7E7EDE
:102418007C797A7E7E7F7F7F8184848282838383B6
:102428008181807E7D7E8083858380808282818198
:10243800807F807F7D7A7C7D7E7E7C7E7F81807DB3
:102448007C7C7F8281808485827F7F808484817E7A
:102458007F828382838285847E7E7D7E7E7E7E7D72
:102468007C7B7C7E7E7D7B7A7B7F817D7D7F807E91
:102478007B7A7A7E7F7D7E7F838684838183848452
:102488008382838381807F7E8281807C7E8181813B
:10249800817E7B7B7D7E7C7B7B7D7D7F7D7E7F7F60
:1024A800808081828482807F7F7E7F817F81848219
:1024B80082858483828281807F7F807F7F7E7D800A
:1024C8007E7C7C7D7E7D7D7E7C7C7D7D7C7D808030
:1024D8007E7E80828383817F8180808386838080E3
:1024E8007F80817F7D7D7F7F7F8080807F7F8082EE
:1024F800817D7A7A7D7E7D7D7E7F817F7F808183ED
:1025080083838382818384837F7B7D7F83828080B2
:10251800807F80818181807F7E7E7D7C7B7C7A78D4
:10252800797B7D7D7D7E8082818181848685837EA5
:102538007D80807F8080828282838182838485827D
:102548008181807F7B797B7C7C7B7C7E8080807FA7
:102558007D808282807D7B7A7C807F7F7E7E828385
:10256800848484858684838182827F7F8082817E41
:102578007E7D7F7C7C7E7E807F7F7E7E7B7A7A7B81
:102588007D7C7C7C7E7F808081818080808183834C
:1025980081807E7F818282818080848785827F7F1F
:1025A80081817F7C7C7E7E7D7C7C7D7E7D7D7F8045
:1025B8007E7F808282807D7D7E7E80807F82858610
:1025C8008482838382828281807F7F7E7E7E7E7EFC
:1025D8007F7F7E807F807F7D7C7C7F807F7E7F8009
:1025E80080808281828282817F7E7E7F80828081DC
:1025F800838483808281817F7C7C7C7E7F7E7D7DDD
:102608007F807F7B7A7B7A7A7D7E7F7F7F7F7D7EEE
:102618007F8284848584837F7E8081838280828296
:1026280081818180808180807F7D7D7C7C7E7F7EB2
:102638007B7B7C7B7D7F808181807F7F7E7F7F7FAE
:102648008080808182838281828282828385848164
:102658008281807F7D7D7F7F8180807F7F7C7C7D84
:102668007F7E7B7A7B7C7C7C7B7D7F82838382827E
:10267800818182807F7F7D7D7E808383848586843F
:10268800817E7F7F808181807E7D7C7C7D7E7E7F58
:102698007F7F7D7E807F7E7F8182827F7E8080803B
:1026A80081827F7C7F8081818183838483817F7F16
:1026B80080817F7D7E7E7D7C7B7B7B7C7C7B7A7A48
:1026C8007D7F808080818383838483858687837EE2
:1026D8007E81817E7D7F7D7E807F7F7E80807F7E04
:1026E8007F8181817F7F7D7D7E7D7D7C7D7F8181F6
:1026F8008081818181807F808382818081828182C3
:10270800808081817F818081807F7E7C7C7E7F7DCF
:102718007E7E7E7F807E7D7E7F7E7C7B7C7D7D7FD6
:1027280080818483817F80818381807F7E7F808098
:102738007E7E8184858584838182817E7C7D7E7E88
:102748007D7B7A7B7D7C7D7D7D7F7E7E7F7D7D7DB3
:1027580080807F8081828282838483838282838255
:102768008281818485827F7E7E7E80808181808255
:10277800807C7B7B7C7C7B7C7B7D7D7D7D7D7E8086
:102788008281818082838280817F8081828282822D
:102798008383818081817F7D7C7D7F807F7E7C7C3F
:1027A8007C7B7A7B7D7E7F7E7F8080818183828037
:1027B8008081838380807E7F8282838282848484F6
:1027C80084807E7D7C7B7D7E7C7D7D7D7E7C7D7C2A
:1027D8007B7D7E7F7D7E7F7E7F7F7F7E8080818503
:1027E8008786858484828180818181828382807EBC
:1027F8007E7E8080807F7E7D7E7F7E7B797B7C7EF7
:102808007C7A7B7C7F8080818182818080808180CE
:10281800807F7F8282828384868888898785858570
:1028280086858382807F7C7A7876767676787B7ADE
:102838007A7C7C7A7A7A7C7D7E808385858686869A
:10284800878685838588878684848381817F7D7C4C
:102858007D7E7F7F807F7F7E7C7D7E7E7C797776A4
:1028680079797677787A7A7C7D7D7D7E7E7F8081A6
:1028780081818485888A898A8A8A8A8A8A898989D3
:10288800878684817F7E7D7C7A7B7A797A7D7E7F5C
:102898007D7A7A7C7E7F7F7D7B7A7979797A797681
:1028A8007678797978787A7C7B7B7B7C7F81838565
:1028B80086898988858485878787888A8A8A888897
:1028C80088868685858584817F7E7C7B7977767608
:1028D80076767676767678797776787A797A7A7C73
:1028E8007E80808080828486888A8B8D8C8B8B8981
:1028F80086848585858382807E7D7D7E7F7E7C7DC6
:102908007C7B787A7B7977747576797B7D7E7F811D
:10291800828484868887888A8D8C8A8A8A88858337
:10292800838281828584827E7C7D7A7A79767675C7
:1029380077767676767678797C7F7A808482817FDE
:1029480083807D7B787D817E7E7C7E807F7C7B7DA5
:102958007E7F7E7D7D8183898A8C8A8B8B8D8C8B13
:102968008F8F8D8985838882838287817A7A777829
:10297800737270747172707373757877777577780E
:102988007F7C7D80828484847F8489888584858017
:102998007D78757374726F7779777575777D8282B4
:1029A80083898C8E909193948E8A898C8D8E8D8953
:1029B8008D908A838483807C7C7B7C7B767577781A
:1029C8007772747A79787477787C7874787E7D7D7C
:1029D8007D808E8F8E8686847D78727274736E7514
:1029E80075727173798286868C929696969497946E
:1029F800908A888C8A86817E7D7D797B7C7C7D7CB3
:102A08007F82837A7E797A807B75747B7A7D75760E
:102A18007B817B7681878D88837D82786D69696704
:102A2800686D6567696A6B757F85898D939A9E99CC
:102A3800999E9E978D858786817D818583828182F7
:102A4800858683828385807E7F797E7B736E7773AC
:102A58006F7070787D837A828A8C8787837E7D7198
:102A6800696768646967646B70707984888E90920E
:102A7800989C959495928D88838584818083898894
:102A8800858083818282858382817D857A7F7E7637
:102A9800707A797A7D787D82897F87898987847D34
:102AA8007C786F6D6B6B6569686A6A6B6E777E811F
:102AB80086888D929392949493908E898887868B3A
:102AC8008B89878787888683828384837F7B7A7BC9
:102AD80078767A7775757676777372747977768281
:102AE800858784807E7A77747572706B6C71706F6D
:102AF80072787E87888D909697989694948F8D8A11
:102B08008C8A8B8A89898B8587837E7F7F7E7B7E73
:102B1800767E7B767B7977787A787F7B7375787425
:102B2800757471767F7D7B82878A888483827973C6
:102B380077777377717375716D737B7A85898D92E9
:102B4800959192999493948B8D8E908C8D8A868C86
:102B5800818582847C807F817E7977737772746FB8
:102B68007671727070726F74757A7A7879787D7B05
:102B78007C7E81847E848687838783837D817D852F
:102B880080797D7C85788179807D8185868A89892F
:102B9800878987888A808783868A8388828C7A89CE
:102BA800838480837E83777C71707A6D8473856972
:102BB800886E83717679717E69846A846783727797
:102BC80074717A797A77827E828589818B838B8109
:102BD8008E7F8D83888183878A80808A80927E9782
:102BE80074927A8A86828F7C907389787F777A7BD1
:102BF8007B7E7F7B8578837E85837E8371897486DF
:102C080078837773807F737D747E7E7A7E73856D1B
:102C1800826F8178837C7E847C807A7E7C7E7580DE
:102C28007F7C83828485818A7F8F828D818D838555
:102C3800847F8B7E84818582878088838779897762
:102C48008578827F7C80767B7485727E71847284BD
:102C5800777E7B7A7B7C7F78867C8C7D877A877C85
:102C68008080777D7D7F7E7B8B76897D8280738D6A
:102C7800748D6C8B6C897B7B7B768A70946F8E7677
:102C8800887489837A8E808E7F916D9575887E7D14
:102C9800877A8C738D748F79887D7F867C89798B10
:102CA8007684777E7774786C807681797E817D8171
:102CB80078837D7E76867A877E817E85887993740F
:102CC8009775937E887F798074826E916F97708FE5
:102CD8007787807A836D88718C6F90698979897D0F
:102CE800828D739475927996758A797D7D76826DD9
:102CF800906C8D7A887B7D836F8C738679807D7FDD
:102D08007A7882708A748972837F7D87778A7491D2
:102D1800778583828A86837F8C7889827A837D8788
:102D280079837C7C857E8276897B867B797A7A7CBE
:102D38007B807783788178897D8380817F80857D9A
:102D48008B7988798A81877E8085798B7E817E7967
:102D5800877983837B8A7989718C6D83797D826E8B
:102D6800886C8B6F85807F817E7B7B848585848E54
:102D7800778B867C877F877588797C7F7B8582893E
:102D88007889758F728C797D7E72886E886F7F796D
:102D9800827A81837B7F8481828484818B7B837E1A
:102DA800838173906998718782847E7A8E6E8E741F
:102DB8007F778D778184778A7B7F78857F7B887C16
:102DC8008684837E83837584807D83827C888189E1
:102DD8007E8878858676877D7D7E8376877A807DF6
:102DE80088797E827D8277787D816E827C7B78850A
:102DF8007985867980867F78877E8086807F8D7FBB
:102E08008186867487857E7D807D768975817A87BF
:102E1800747F817983737E77857F7C80847B8673DA
:102E2800897E7F856D9673907288857D9074957A7A
:102E3800867A817D837B7F7C7B8B6E8A73817B82A4
:102E48007F7A8D6E8A7979897D8179867E7D827B8C
:102E58007A7E85738D7988817F897B8E718F76855F
:102E68007F85797A8A718979867789778479838168
:102E7800758C75857A7E75807E7C8285778A7A8264
:102E8800827C8A7C8B7E887D8281818287817D8914
:102E9800788083787E787F75807D7385767E7A7E6C
:102EA8007D7883787F82788283818589848681860C
:102EB8007D8387778C838683848479827F7A7E89F1
:102EC8006D877A7E7E79876C90777B828275818424
:102ED800768874837588817C9379817686797D84F8
:102EE8007A8A7F858090887B887C7C836B887984CC
:102EF8007F76966A8B777B86798A6E85806F867FE8
:102F08007B7F85747E8280817F85719170828976CE
:102F18008F758E798988758D7E858283837B857C84
:102F2800797D7E7D777F7E7F7D8279818775827CC2
:102F3800808279827C84827B86797F87788789768C
:102F48008E7B828876887689767C8678877C7A7884
:102F58008777837E78817F847E817C7F79897C7A7C
:102F6800827F7E84817886837C818A7A8688798C40
:102F78007F80847F7F7985758A7F74827E7F807E5B
:102F8800797A8279828371877583827D798083805B
:102F98007D8C7E7C8C73828583837D82857D8F800A
:102FA800807C887A807E7F777B87728E74876D833A
:102FB8007B798A758D6D8A777B8B6E887C81838619
:102FC8007D8E7F81878A8177836A8B778D778584E9
:102FD8007584748473847E7F887A85797988738A06
:102FE8008186788A88729573847C828077897B78D9
:102FF8007D7B738B79856D858B808F738B78937FC1
:103008006D897B80957295944F70AAA3834E4E5B11
:103018006DABB2BDA5A46679593F394B701E8A992C
:103028008F9D849BA3C0B0D6B77E8E7E65415C40E1
:103038005D6E5F7579865186875E8D849294A389CB
:1030480085834F99A265609EA4999995A9AFA57D9E
:1030580081858183776A5F596B6272656E885C6C63
:103068007393898789969F83A1808F7E80927D82C2
:103078006347666E6869748B667B6C76645E576CB2
:103088007F68A581818E687E89919F929984AB978C
:103098009BA18792A6ABA2BD989A7F7C72723B6E69
:1030A800845B935F7B6484AA81A65A63695C6A35F2
:1030B800805E89915E663557526A75839196B28FA4
:1030C8007E676D83768680899183867668717E981F
:1030D80081A18C8B8D629278B7C29FBA9E898081BC
:1030E8008592AE828BAEC0C9A7B8A5A07D737C5E61
:1030F8007D75705A444B5A5F5A5D5A59304F5E6419
:1031080051453846653E5246576153393D617D8782
:103118009379567C646E716F9CB7D1D4DDE6D7D8AD
:10312800DBC3BEBABFD4CEB5907F767D8792ACA400
:10313800A3A0998963798068686D766271786D6CEF
:10314800474B677B7A726D7287888290947F856718
:10315800646C728186778E9880C2AF6C515B6C9379
:10316800A58D6F47322B120F202F4F60746F6E7929
:103178009F9C8171626D605E666F6C70716575751C
:1031880085909C8886A6A4B6B6A695A5C9F1EEE654
:10319800E7E3D8C4B7B8B3ABAEB2B28C7B78726A87
:1031A8005F60746E665254666156372F2A36415EE8
:1031B800636B746A7B8B9583665E82907E686471AC
:1031C800656E868B8E95A8B3BEB9BDCCC0ABB2AECA
:1031D800A08E71837F594543494437352A2A2D1DCE
:1031E80016374E51595752606D60646E7592A39BA5
:1031F800A08D8E92B39F8BB59B868186889898B157
:10320800DBF2F5FEFFF4ECE4E8DED0C4C4BAA1A01A
:103218009E82737D918E7F7B6C6E655C56513635D0
:10322800483C4B492D211A0A242A223634233136A8
:10323800242A2733484C3F51645E6168707A6B5486
:10324800555D626F89898B8E95918D889DC4DBE170
:10325800E2DCC5B6B7CAD8DBD1CBC6CFC7D6F1DD5D
:10326800D6DAE1DABDACA3A3A9B5C5C1B1A69980E8
:1032780075787E776F7A7C6C5C4A383D4740545A43
:103288004F453B36322B15181F303C312A1B262B55
:103298003647312D3438414E63817C8FB1C4B3A594
:1032A800ADA59B7E72707B5C5E5E658190919BB2E2
:1032B800B3CCD0D2D4CFD6E0DBDDD6D2CACCDAD9E3
:1032C800D8C9BCCDCBACA1A09C8A7F787E7A615C42
:1032D8006E8389767476705F6165646E68707A88CB
:1032E800908C715D514A464F4E58625E5B40332860
:1032F800212C4E433A402B2026302937444A565732
:103308004B5B766A5F58637A715F5A63635F6B825F
:1033180081808B949B9489898F9DACABA2A3A7B71E
:10332800D8DAE1E2E1ECF6FCF1F0ECE7E0E3DFD932
:10333800D0CBD1D3CECAC7A18E847674726C605EAE
:103348005C5B50321E2A485550463C2D2A33404E6D
:103358005B6761615D574349798A928D93A59B7735
:1033680072888B847A756D614C3425171F20203440
:103378003F404155676B5D6A6E6F8490A7AB9C9127
:103388009EB2BCB2B2B8A195A9B49588898D908136
:103398008092A6B6B2ACB4CAD1B39A9BA3947A6C05
:1033A8007A898B7F7B7B6C67616976797171898F8C
:1033B80086929D9492A9BAC8BEC8D3C2A89589829C
:1033C8008A8DA7C3C7BAC1BAB3A78D7A717F899905
:1033D800A4AAA88D7974766E534D503C302A2322C6
:1033E8001E1A213123212120223E5E433A3B4456B6
:1033F800686B7BA6A5ADC0B9B0A27752515B5B42A2
:103408003D40454C535E63543C3E4E65727E7D7A2A
:103418007B86909B977D7077819FAE86878F827F12
:10342800808099C5C7C1CCC3A79C989BAEB49F9E0A
:10343800A4A1B1BEB1A59C8380837F8685817C824F
:103448008B868C989C887E7987AB9F8A8A817D73CE
:103458007E8EA0B9A8A7A7ADB7BDB7B7B5A0A4ADD4
:10346800BDB5AFA3A0988C978D9AA3ABA999A1A03D
:10347800876662685940264582794E3B393E423814
:10348800375F6F4B37465B50381E151E1927363588
:1034980034332F353E3C3D3E51665F524349534FCE
:1034A800596B6F74614B79A49782777C95977C7C74
:1034B8009EA69596AFD0CEA47B7173757F8B8E8FA9
:1034C800918291916D5C5F6A798B8898ABA5A3A175
:1034D800A2B1AD9EAFDBDFBFA49CA6A9A6A5B4C7C9
:1034E800C5B6AFABAB906C67899DA89F939289973F
:1034F8008D888273666C7E9090848B97A18F7D8176
:103508008F9495ABCFCBA4999EA7AFB29A94ABA654
:10351800958B89856D545C6A6D68656463696865B7
:10352800685F46373A53747673818F7F59474A5597
:10353800473C6B8D7D4F2F313C43364377988782CC
:103548007E6B5F515C6D79766F666C736A62676DCE
:10355800635C5D6C696C73717A79694F52747768D2
:1035680080A6B3AA9E949AA195A0C7E4D3B9A99EB0
:103578009983807D83928E8B83909988827C674E15
:1035880041566764625F767D7E6F6B7B77737DA53E
:10359800ADA28F878B8474779ABDC5BFC2B7B1B20D
:1035A800AA9F959A9C9896969B9B9692836A5C6C28
:1035B800808C95A0A7A4B6A8A1ADA9B2C4D5D3CB39
:1035C800C2B6ABAAADBACDD8CBBFAC92806D5D4EBA
:1035D800575D584338403F3A423C291B15223C412D
:1035E800333C3E42362D3B423F47706B5041424A86
:1035F8004D4B4D676D5A535959595F6A66676261F9
:103608006B6564717E8A9483735F5C5A616A7F8A92
:103618008A8D84908985809AA9A39E9A999FA49C53
:10362800B4CDDAC9C8C9BFACA4A19DA7A29892928B
:103638009A9E94A0AA9F8B879DA79A898188887350
:103648007171666179938A7671787D7E7685A8BF77
:10365800AD9B9493928A9394A4A69F9796958982FA
:103668007B7F86827A868B826E6060685A57584262
:1036780044597367524D70857F70667F918C717263
:1036880075766F71818A8A796D666B6B696B737EEB
:10369800786F798E95918F939691919A9F8D99BF16
:1036A800C0A89A97A1A09799A5BFD3D2BEBDAB8C4D
:1036B800797583938E6E534F493A2F3C443F32328B
:1036C80048523F263137301C2220242038564740A4
:1036D8003D5A737F7D8893AFB5A99F8979626276D9
:1036E8008DA7A18A8B8B928D969C9D948EA1B3B247
:1036F8009894928D8A8B9CABA0A3C0C3A498919AEE
:10370800A89C9294B0BFBBA7A4A188807C8F9E9DE3
:1037180086707A89897A7C84745E657B8F8A7877EB
:10372800848B7F8288847C8CACAC94899BADBEB240
:10373800A0AAC9DACEBAB7B4937F788595846559BB
:10374800575E5C5854535956626E7F7B7D7D6D5D24
:103758003B314148384A7889704E435C67656776E3
:10376800A0A99C878583756E7596B3AD90868F9159
:10377800877A7C8474676B78776A5C646A6B65683F
:1037880077776B5E8094867171736F60556988A0D6
:10379800967F766F676D6A74776A594E505A5E5B8A
:1037A800686F6D6561748279787E73706361717713
:1037B8006A5D7392907F75707C7A7D96BFD9D2B717
:1037C800A6AB9A8A90A2B3B2A29993908D8C8E914F
:1037D80093847C858D9379717E857E738498977A9E
:1037E80080A2BBB49B8E9698959CB3C7B49C888ED8
:1037F80090887E808E92887775736E656672705D2C
:103808004554767F6C5B606D6F627079755A4E7641
:1038180093877A6E71828796ACCAC6B199A0B0A711
:10382800A39A9DA59B867C7A7B7B747572625445AE
:103838005C7474655A5454554D59554D37447882C3
:10384800633B324A6871788585775D4F6069504679
:103858004E5C6B6762636A72756C655E554444536F
:103868005A4F46516176787C77715F6598B9AD8C0F
:1038780076839FADB7C2DEDBC9BDCCE6DCC0A29AB9
:10388800A5A78F858F9C9F968F8B806F6C889C9542
:1038980083859EAAB298857D6E6B86B0A98A64617D
:1038A80079817F7D889C90807472745D524A636AC6
:1038B800615F6C7F7D7A7B938F7B707A898877696B
:1038C8007A93A198909AAB9D98C5D3C5B2A7C2D751
:1038D800CFC0BEC3C7BDB4C0CCB8A08C8C8F827B10
:1038E80079817F7167655D513E36484B4342505A36
:1038F8005B3F1E2129201B3F534839344D6A6962BA
:1039080067757F7D7A84968C766A6A6D726A6B6F4A
:103918007179737B82796C68797F72657381837C36
:103928006B77897C779195887F879FBCC1BEB7B13B
:10393800AC9E9BA0B4B09C8E949083827D82838140
:103948008287846C57525B624D4E63737A6A5A5D04
:10395800654E48686E5C4D4354706A66696E75754D
:10396800707B8B80756F6E655D5D677376798B9CF8
:10397800A9A5989EAFB4AAB2C8E0DFC8AFBDB795F5
:10398800A6C1C2B6B2ADC9D8C6C3CDDAD3C5B0A830
:10399800A08E8888838581817D6F676E70737D7145
:1039A800655C594C3F3B4A534C3A3F5D4B4A636315
:1039B8004E453E4E6A6B68646A6B625B697D746FE4
:1039C800787979716A71726C7170707F817D7E8689
:1039D8008F8B8898A9AA998C928F8295A193887FBA
:1039E800869A9B8C98A6A49F948685858085807AE4
:1039F8007872747573716D5F5C60595A606D71711E
:103A08006F75715D4D4C4D43587B74594F4E5F6CCB
:103A1800727F9DACA8A48D847D6E747F7F86848B15
:103A28009B968A8483838379797D7F726A70828288
:103A380073747B87718099958D848DA4ABA8B2B47B
:103A4800B5B2B9B9B9B4A5A6A9A19F8F89A1AAA2EF
:103A580095918C867C808C91938D9199998F838A8E
:103A6800807681786A5D5154656E7A83807E7B8228
:103A780097A49D8E7D746F62504351666D6F696621
:103A88006359586A7F8A8B848A8B7E756F6F7582BB
:103A98008B8F979C9C9999A0A8ABA7A7988A868694
:103AA800867A68646E6C5B494C5D67625B53524C06
:103AB8005052546563605963706F6A6468636273D7
:103AC80072685D586377847D7878879295979B9A1A
:103AD800989DA0ADAFA49E9D958C89888A877D749A
:103AE8007B858C8B90999E9A87827E848B8181843A
:103AF800828083848486807D848F9A97887F7B7771
:103B0800797671777F878D88776E6F7576797B790F
:103B1800716363615C5E5B6172828B898682869564
:103B2800A7B2B7BAB9B5B5B6B6B5B4B5B5BCBDB632
:103B3800B4B9BEB8B1ABA6A19C9897999A938C8A50
:103B480088847F7F8084888D8A796F65595B5F6000
:103B5800636466625854575B5B62686B65514446A0
:103B68004C4E4C4745453E383F4B535B5E5B574B8D
:103B78003E3534363F474D5657595D61626C7C8BF4
:103B88009495989B9E9D9A948F91979A9CA3A8AA86
:103B9800A6A3A5A5A8A7A3A2A3A29D9D9C938B8637
:103BA80089929696918C8478737B838178716F72F1
:103BB8007475767978787C7C878B888C8E8679701A
:103BC8006E6D6A69686C6C6B767D81807A7A8287A3
:103BD800868382828186909EA1A09E999EA4A8AF8A
:103BE800B0AAA5A3A6A39D99A1A9A8A3A1A09C97A3
:103BF800908A8B9394908D8F8F7F6C656A7376759E
:103C0800756B676A71797C7875777A7C7C72656187
:103C180062696A626469727B7B7469666560554E25
:103C28004A46495469797B6C5D5D6A7B8480766C11
:103C38006663605F61686F787B79787C7E81888F46
:103C48008D837B7B80807B767C878D88847F757471
:103C580079899FADB2ADA29C9B9C9A8E868E9799CE
:103C68009C9F9A9698999D9E9B9D9A8D7E7265576A
:103C7800545F6D727273787B7B7E7A736B676C7638
:103C880080878885808184898A87848588878780DA
:103C98007A797A7A7C8082888D92969086868D95BC
:103CA800908988837C727376726C625E5F667481B9
:103CB8008D95989FA5A59E9490939AA5B0B4AFA60C
:103CC8009D94939CA1A6AFB5B1A38E82817B747697
:103CD8007E7F7D7A7A76675449495360696C695C5E
:103CE800514D4B4B453F404D585C5F696E66626570
:103CF8006E7372757A7D7F7D79828B8D8F929391A9
:103D08008A88898274635655626E7C898F8E8B8E01
:103D180092958E888B90908F8F8F92908F8F908FA7
:103D280090949A9C9998969797958E847C7D838A8F
:103D38008F8F8573626577848C91908C8C877D7565
:103D48006D625E626A79838685898A8887858B92A7
:103D58009695887A7472757A7C7B7A7B8087887F5F
:103D6800756E6B707A807E7A7A7D8185847F818496
:103D7800837E7D84867E7D80838077707582888847
:103D8800878684889096989B9A9A9E9D96897E7538
:103D980071747D817E7D838C929596938E877F79D1
:103DA8007C8484817F79757473757D837F7A7C7E4A
:103DB8007E7E7C7468615D6471797971695F5A5E31
:103DC800676F757979726966666462636060666B4D
:103DD800717B81818389969B988F8683807E7E8480
:103DE8008588898A8C8B8F8E887F79716F717171C4
:103DF800747A80838281848584858A918F8B888672
:103E080082838180858A877F7A797B869BA7A19127
:103E180083787574797D7F7C726B6A707170778630
:103E280091969A9B9B94878289939A9DA0A8B1B3F7
:103E3800ABA5A6A8A39E979089818185857A706F86
:103E48006D656872776E625E5F64635E5B5F666C09
:103E58006966696C6E6F707475726E71777A79784D
:103E6800797A7775767B7F868986878A8D90929610
:103E78009892847977787F85837973737C858D941C
:103E8800918D877E76727070757B7B767573707591
:103E9800777673737B8A999D9B938982848D928EA2
:103EA800868582827F7B78777D8D908480756C6330
:103EB80062686E68626A74787373767D81807974DB
:103EC8007172777B8488908E8D909395908B847E89
:103ED800787A7E7D75747E8E979C998C81828D9779
:103EE800A09C9D9B998E8D88848689897F7C736B25
:103EF800636D7584868279767369676569646563BD
:103F08006459535D6A7985949994928D8B888589D3
:103F18008E959B9D9B96979A9A9CA3AAAFB0ABA3AC
:103F280098908A817771726F66615E6069777B723B
:103F3800716E707884857A736E72777C7F878781DB
:103F48007D74737574736D6461676B727171787861
:103F58007A7D81878F887A6B60646869686560603C
:103F6800636B717578797F838788827C7C86929A67
:103F78009A96918A888E93949AA0A2A2A6AAA89D9E
:103F880093918F8F8D898C929281777779838B919A
:103F9800938D7F71696666635F5E5F636365696F52
:103FA8006E7177777873838C919084868A8C888DEC
:103FB8008E8D8D8E909293918F8377767E868E8E5E
:103FC800837D807E7D8A96A2A4998F8B8076746B80
:103FD80069676061696E727269696D737976696122
:103FE800666E7C8A86837F77767474838C8B9593D0
:103FF8008F8F8E8587878282868A95959191868212
:104008008394ABBEB1AA84847B646C5055554E4CE6
:1040180059685E7371556D587A876F7978706E7FBD
:10402800869E948E8DA691828284817D655E676D61
:104038009D695B80AC8C75635F808BA7A9B4AB94DA
:104048007D664938314E453F697E8F8B8E95B2C665
:10405800BEC4AEBBC09C91988775726061767D8244
:104068009491A1A7A39DAA9C898D868F8A87786D34
:1040780051393E49596A737478757A7D79838179A3
:1040880071746D717D7976766E5C6777888F908FA5
:104098009EA9ACB7B9ADAEACA3A7A18C71605252C2
:1040A80042393844505C6A7185898A9FAEA79E99C7
:1040B8009D979C98887271767D7F7A857F777A85BF
:1040C800919787807B756C5E5C594E3F36383D34DE
:1040D8003546566679849BB7B9AE9F99948C8D8A7C
:1040E8009FA48F888685888F8DA09D9297A2A7A46C
:1040F80097807E8182767D77675F5A56575D5155E6
:104108007C776F6B7D9C928767837C8575739992AA
:104118008F68667F837A85A59F95988D9A99896B14
:104128008F847B756D7C5C404C63707E6969909769
:104138006EA19DA8B78C839E9B947573898B795DBE
:104148007E5788959A9D85BFC1CEDFD4A88997925E
:104158008A6E7B6F674F3D443F4D48696A98A489D2
:104168008D958F7C7B686858535F7864415665509D
:104178003F5E5D74554B6E898C94AA92A4A4AC954D
:10418800A49A7F84737D8892A3917F90939BA3AD1B
:10419800AA9FA1888A8E89A086898C8E878D8B6834
:1041A80071918881948995A6A18475777F8C7771A0
:1041B8006B695B464835524A526E7077858A7E85B0
:1041C800645C65627084766A6B75788A8B84938F79
:1041D80097A4A196A4907F7E7F7A79816E6C6A738A
:1041E80081778196868C8D92AA95A1AB8D76646332
:1041F8006F646479766F82778381746D69878E873F
:104208008B9AA7AE918184898E7D706975716B7563
:104218007A7D72636B776C808C96908FA18677839A
:10422800999491867C90A29FA5A4A19EADA8A2B7BF
:10423800BAB29D8F767B745D4D68777A706B746FB8
:104248007A7481909B98A58E7E6D6B5C43665A50FC
:104258004F444C404B6A617171788D878D92928280
:1042680074706E7F897A767C78807972756B697ED6
:1042780086818F93979099A3A095A2BEAFA99085A8
:10428800908E94969A9B9BA3939B9F8F95898881E8
:104298008581695355605D53484840565A69676A35
:1042A8007D84908B828879657E808166676A645E8A
:1042B8005B6F7D9192A1A8B3B8B0A6978D8B93A39D
:1042C800958787807D7A79716C7382837E7779761A
:1042D8006B6D62676767828D8475767E8C96979C16
:1042E8009999A69E9A9E968B807C74727D7F798020
:1042F8007E807D7D78737B879382767E8A88857FB2
:104308007B868B95928176737A7E86827F87888971
:104318008C8676808B8C89818187918A7E838B8439
:1043280082846B636D727E7D7B86867A7B71715F1A
:104338005C716C68594F484956626B85888A8A90C7
:1043480090898068706D6A7274656B686D8085820B
:10435800848D94A699979EACB0B9B0A2A197A8B243
:10436800ADA2998C8E888278777472786A676C723D
:10437800665F5D60646575727471767F7C75747F45
:1043880084877E7C7C8884848488939197989379A9
:104398006D6668717885989B8B878A9A9A94877FCF
:1043A800857E7B7C7667594F56564F4F55677A8581
:1043B800867D7E9C9BA7A1A29C7F97968673706A38
:1043C800727D7D7F7D7D77756B737A776F72726E84
:1043D800777B7E848D8D989B918A839B9999999000
:1043E8009795847477828B83919F9480807B889241
:1043F80093A5A6ABA49B898B8F7E797A736C6D6A23
:1044080055433B3A4C5552525061717470707F8DD0
:1044180091989592938F999E9581797176808384EE
:10442800828B8E9A99918B828179736566696564AE
:10443800645B66686A6F6A7B84857C7A7D85777A37
:104448007778827A8A91958A8D8F9DA8B6B9BFC8E8
:10445800C1C09F90807A72695D5C635A5B4C464923
:104468005258595C5D6576858485858C8F918B85DE
:104478008E8B99978D7463646E7A818D8B8C8B92F9
:104488009195A3A3A3A0998F9190878278797D7243
:104498006E716E72777F807C7881786C625A5E5418
:1044A8006775796E666070868D9998AAAEAEA18997
:1044B800837F80826F695D585A565B5C6C756F7537
:1044C800777A949B9C99909297A093898E858E9DDC
:1044D80099877F73798B867E7D8B94978D807E7F7D
:1044E800777F80848A878D8E86808B8A8E8C817276
:1044F80077827C8385868B9087828A7A788A876A96
:104508005B4A4855514F55636F7E80776975757260
:1045180070666357605D5D5C5E6B727578787E9CD3
:10452800989AA59EA1A4ABA6A29792A7BAB3A9A848
:10453800A3B1B2A4A09EA3A7A18A76777369695B89
:1045480052515B5E5C51484E4F504450607F868D9F
:10455800887465676B6E7C757F939D8E8B7B829864
:10456800A3ABAFBDBEBAC3B5B0BDB1B7AB9D897B78
:1045780075725D56533E595D50454B6E949D7873E8
:10458800799092907875876A92947271777A7F871A
:104598008B94949F988483787278736C535E596770
:1045A800886C79848A7E74645E6B7E7761755C5CE6
:1045B8006669656F6E90AC989086798CA196ABA968
:1045C800AFA9ABA5949B92909B8C897E7C816A67EE
:1045D800625D6D7B79685A74889588838796A09701
:1045E80097877C8B8F86724D4A404C584B52677F19
:1045F80083797E84989F9487736A7B7A68696772E7
:104608006E68718C9DA0938C8786878387898D8837
:1046180099A099A0A19DA2A8ADB4B3B3B0B3AFA817
:10462800AA9582694846404C5A59584A493F4A62B5
:10463800697177797D888588707C797A906A93AB7F
:104648008B857A5054797E8D9B9592A49F97A2A8CA
:104658009B8E848D82746D717D70777273747768A8
:104668006C82919287897A8A8E9382768594A68FB6
:104678007D768190AAA7ABBBABB6AB9993878985AA
:10468800746344323646514445484B56605A627DFD
:1046980081787D7E768C847A7B6A75939C877C741E
:1046A8007F91A6A9A09EA7B9AEB8A58986788F7B69
:1046B8006D6F5F7C7E726C888B999493887D8C6417
:1046C800867065758B85876F6979637F66615E0023
:1046D80000080140000C014000100140232D302B40
:1046E8002000686C4C0065666745464700303132EB
:1046F8003334353637383941424344454600303142
:0F470800323334353637383961626364656600A1
:1047180078563412A80000200000000000000000B5
:1047280000000000010203040607080900A24A0469
:10473800000002000102000202000302000402005D
:1047480005020006020007023C00002000000000ED
:104758000000000000000000000000000000000051
:104768000000000000000000000000000000000041
:104778000000000000000000000000000000000031
:104788000000000000000000000000000000000021
:104798000000000000000000000000000000000011
:1047A800000000000000000000000000325476986D
:040000050800010DE1
:00000001FF
